:100000000C9455010C947D010C947D010C94C8094D
:100010000C94EC090C94100A0C947D010C947D0155
:100020000C947D010C943E070C947D010C947D0191
:100030000C947D010C947D010C947D010C947D0148
:100040000C94340A0C947D010C94EF0B0C942B0C43
:100050000C947D010C947D010C947D010C947D0128
:100060000C942B080C947D017F8182848587888A7B
:100070008B8D8F909293959698999B9C9E9FA1A310
:10008000A4A6A7A8AAABADAEB0B1B3B4B6B7B8BA80
:10009000BBBCBEBFC1C2C3C5C6C7C8CACBCCCDCF0F
:1000A000D0D1D2D3D5D6D7D8D9DADBDCDDDFE0E1C9
:1000B000E2E3E4E4E5E6E7E8E9EAEBECECEDEEEFB9
:1000C000EFF0F1F2F2F3F4F4F5F5F6F7F7F8F8F9EA
:1000D000F9F9FAFAFBFBFBFCFCFCFDFDFDFDFEFE65
:1000E000FEFEFEFEFEFEFEFEFFFEFEFEFEFEFEFE2F
:1000F000FEFEFEFDFDFDFDFCFCFCFBFBFBFAFAF940
:10010000F9F9F8F8F7F7F6F5F5F4F4F3F2F2F1F09F
:10011000EFEFEEEDECECEBEAE9E8E7E6E5E4E4E34B
:10012000E2E1E0DFDDDCDBDAD9D8D7D6D5D3D2D136
:10013000D0CFCDCCCBCAC8C7C6C5C3C2C1BFBEBC59
:10014000BBBAB8B7B6B4B3B1B0AEADABAAA8A7A6A8
:10015000A4A3A19F9E9C9B999896959392908F8D16
:100160008B8A8887858482817F7D7C7A7977767493
:1001700073716F6E6C6B696866656362605F5D5B0F
:100180005A585756545351504E4D4B4A484746447F
:100190004342403F3D3C3B39383736343332312FD0
:1001A0002E2D2C2B2928272625242322211F1E1DF6
:1001B0001C1B1A1A19181716151413121211100FE6
:1001C0000F0E0D0C0C0B0A0A090908070706060595
:1001D00005050404030303020202010101010000FA
:1001E000000000000000000000000000000000000F
:1001F00000000001010101020202030303040405DF
:100200000505060607070809090A0A0B0C0C0D0E5E
:100210000F0F10111212131415161718191A1A1B92
:100220001C1D1E1F2122232425262728292B2C2D87
:100230002E2F31323334363738393B3C3D3F404244
:1002400043444647484A4B4D4E50515354565758D5
:100250005A5B5D5F606263656668696B6C6E6F7147
:1002600073747677797A7C7D0102040810204080CF
:1002700001020408102001020408102004040404F0
:100280000404040402020202020203030303030340
:1002900000000000250028002B00000000002400C2
:1002A00027002A00F303FE07E60C11241FBECFEF40
:1002B000D8E0DEBFCDBF12E0A0E0B1E0EEE8FDE1A6
:1002C00002C005900D92A030B107D9F715E0A0E06B
:1002D000B2E001C01D92A63FB107E1F712E0CAEA01
:1002E000D2E004C02297FE010E94B20EC43AD107A8
:1002F000C9F70E94360D0C94C50E0C9400001092A4
:1003000008021092070210920A021092090210923B
:100310000C0210920B0210920E0210920D02089520
:100320000F931F93CF93DF93182F843231F08C32C9
:1003300021F1833209F03FC00CC081E08093390184
:100340000E947F0164E571E08FE495E00E949A0DC0
:1003500032C080913901882371F110920802109205
:1003600007021092390167E671E08FE495E00E9480
:100370009A0D40E0C1E0D0E021C08091390188238E
:10038000D1F0209107023091080230930C022093A3
:100390000B0220910D0230910E022F5F3F4F3093E0
:1003A0000E0220930D0268E771E08FE495E00E9451
:1003B0007B0D41E001C040E0C0E0D0E020910702A9
:1003C00030910802F901E15FFD4F10832F5F3F4F2D
:1003D000309308022093070280910D0290910E0243
:1003E000181619060CF0B6C0442309F4B3C00FE088
:1003F00012E007C0F80161918F018FE495E00E943F
:100400007D0D98012F50324080910B0290910C028B
:10041000281739077CF3109208021092070262E84D
:1004200071E08FE495E00E947B0D60910D02709168
:100430000E024AE050E08FE495E00E94680E2091A1
:100440000D0230910E022530310509F44CC08CF4B8
:100450002230310569F12CF42130310509F07AC0E0
:100460001EC02330310569F12430310509F072C016
:1004700031C02830310509F451C044F4263031052B
:10048000D9F12730310509F065C03FC02930310569
:1004900009F44DC02A30310509F05CC051C04091CB
:1004A0000B0250910C026FE072E086E092E050C0C7
:1004B00040910B0250910C026FE072E080E092E0FC
:1004C00047C040910B0250910C026FE072E08BE24A
:1004D00091E03EC040910B0250910C026FE072E03F
:1004E00081E391E035C040910B0250910C026FE026
:1004F00072E082E291E02CC040910B0250910C021C
:100500006FE072E088E191E023C040910B025091CE
:100510000C026FE072E082E191E01AC040910B02A0
:1005200050910C026FE072E08CE091E011C04091BC
:100530000B0250910C026FE072E080E091E008C085
:1005400040910B0250910C026FE072E086E091E066
:100550000E94B60E8C2F8170DF91CF911F910F9169
:100560000895E6EBF0E080818F798083A0EBB0E026
:100570008C9183608C93E1EBF0E08081877F8083B6
:100580008C918F7080628C938081887F8160808362
:100590008FE78093B4000895B89AE0E7F0E0808197
:1005A0008160808308958FE78093B400E0E7F0E0F6
:1005B00080818E7F8083089584E392E00C949D0473
:1005C00070931B0260931A02909337028093360255
:1005D00008958091310290E00895809138029091C1
:1005E00039029093300280932F0210922E021092C3
:1005F0002D0210922C0210922B021092320281E0F6
:10060000809331020E94B10284E392E00E9493043D
:100610000C94CC0280913102882309F485C020918A
:100620002B0230912C0280911A0290911B02281704
:10063000390749F4109231020E94D30284E392E018
:100640000E948F0471C080913202811136C0809166
:100650002B0290912C0287709927892B89F4809125
:100660002B0290912C0233E0969587953A95E1F70D
:10067000E0913602F0913702E80FF91F808103C044
:10068000809133028695809333028091330280FDFE
:1006900014C080912F029091300220913802309145
:1006A00039028227932720913A0230913B02822718
:1006B00093279093300280932F0220912F02309144
:1006C000300280912D0290912E02820F931F909301
:1006D0002E0280932D0280912D0290912E02E091A6
:1006E0008A01F0918B013197880F892F881F990B10
:1006F0009195E823F923E859FF4FE491E093B40082
:10070000809132028F5F8093320290913C02891374
:100710000BC01092320280912B0290912C02019614
:1007200090932C0280932B02B89B09C080912902E0
:1007300090912A02019690932A0280932902809137
:10074000250290912602A0912702B09128020196DD
:10075000A11DB11D8093250290932602A09327022C
:10076000B09328022091B20030E0B89B03C020383B
:100770003105B8F180911F029091200282179307F2
:1007800080F43093200220931F0280912B029091DD
:100790002C0290931E0280931D028091320280935E
:1007A0001C0280913A0190913B012817390720F4EF
:1007B00030933B0120933A018091210290912202D3
:1007C000A0912302B0912402820F931FA11DB11D9D
:1007D0008093210290932202A0932302B0932402DB
:1007E00008953395C7CFCF92DF92EF92FF92CF93C8
:1007F000DF93C0908601D0908701E0908801F0904F
:100800008901C701B60120EB34E040E050E00E94CE
:100810008E0E20933C02C0918A01D0918B019E01E3
:10082000A0EBB4E00E94820E47E0660F771F881F9E
:10083000991F4A95D1F7A70196010E948E0E309319
:100840003902209338029E01A8E9B8E00E94820E86
:1008500057E0660F771F881F991F5A95D1F7A70198
:1008600096010E948E0E30933B0220933A0289EC4F
:1008700091E09093350280933402DF91CF91FF9005
:10088000EF90DF90CF90089561E08DE00E941B0B08
:1008900060E08DE00E94A90440E855E260E070E06D
:1008A0008FE495E00E94660C0E94DC026CE871E027
:1008B0008FE495E00E949A0D0E947F0167E971E044
:1008C0008FE495E00E949A0D6BEA71E08FE495E069
:1008D0000C949A0D0E947E0A8FE495E00E94530BBF
:1008E000892B41F08FE495E00E94820B0E949001D9
:1008F00080933D0280913D02882371F308958FE437
:1009000095E00E94530B892B41F00E946A040E94DB
:10091000C5060E94E902892BE1F70C94C80460E047
:1009200084E00C94A90461E084E00E94A90469E1D8
:1009300070E080E090E00C94BA0A61E084E00E94EC
:100940001B0B60E084E00E94A90461E083E00C944A
:100950001B0B90E0FC01E859FD4F2491FC01E45889
:10096000FD4FE491EE2399F0F0E0EE0FFF1FE0570A
:10097000FD4F85919491DC019FB7F8948C916111A2
:1009800003C02095822301C0822B8C939FBF0895C2
:1009900083B7817F83BF83B7816083BFE4E6F0E0E4
:1009A0008081816080838081846080838081806891
:1009B000808360E08DE00E94A90483B7816083BFDB
:1009C000889583B78E7F83BF61E08DE00E94A90484
:1009D00083B78E7F83BFE4E6F0E0808180718083FF
:1009E00008950F931F93CF93409141045091420477
:1009F00020913E0230913F0290914004C9E061E0B5
:100A000070E04EC0A82FA1708695FA01EA27AF01C9
:100A100056954795E0FF04C008E0402704E85027BA
:100A2000A11105C0211510E1310708F13CC02115C5
:100A3000E0E13E0708F037C0F901A3E0F695E7953D
:100A4000AA95E1F7E05CFD4FD901A770BB278B01A8
:100A500002C0000F111FAA95E2F7D801B081BA2B8E
:100A6000B0832F5F3F4F9F5F9530D0F0DBCFF90110
:100A700093E0F695E7959A95E1F7E05CFD4FD90193
:100A8000A770BB278B0102C0000F111FAA95E2F7C8
:100A9000D801A0959081A923A0832F5F3F4F90E0BC
:100AA000C15009F0AFCF50934204409341043093BA
:100AB0003F0220933E0290934004CF911F910F91EB
:100AC0000895CF93DF931F92CDB7DEB7682F698368
:100AD0000E94F10469818FE495E00F90DF91CF913E
:100AE0000C947D0D1F93CF93DF9380913E029091E4
:100AF0003F0220E030E0AEE7B0E041E050E0811599
:100B000010E1910708F02AC0ED01022E02C0D59530
:100B1000C7950A94E2F7FC01D3E0F695E795DA95DC
:100B2000E1F7BC01677077271C2FE05CFD4FEA01FD
:100B300002C0CC0FDD1F6A95E2F7BE0110FF04C0B2
:100B40007081762B708304C0609570816723608309
:100B50002F5F3F4F01962830310589F690933F0271
:100B600080933E02DF91CF911F910895CF93DF9341
:100B7000EC0102C00E94610589918111FBCFDF91D8
:100B8000CF9108956F927F928F929F92AF92BF9272
:100B9000CF92DF92EF92FF920F931F93CF93DF9349
:100BA000EC018B0110923F0210923E021092400421
:100BB0008FEF9FEF90934204809341043DE2E32E38
:100BC000F12C0E94720581E0E81AF108D1F77E014C
:100BD000C12CD12C5801E1E0AE1AB1082BC0880F0E
:100BE0000E94F10434016E187F08F40181914F01D5
:100BF0008111F5CF06C080E40E94F104FFEF6F1A67
:100C00007F0A86E068167104B4F3F7018781CA147D
:100C1000DB0431F490E0C096880F991F816002C018
:100C2000805D880F0E94F104FFEFCF1ADF0A88E091
:100C3000E80EF11CC016D10614F44701D3CF83E0AF
:100C40000E94F10480EF0E94F1048FE495E00E947D
:100C5000840D6BE58FE495E00E947D0D0E947E0A75
:100C6000AB01BC012AE030E08FE495E00E940A0E5F
:100C70006FEC71E08FE495E00E947B0DBE01685F30
:100C80007F4F8FE495E00E947B0D8F85882369F06C
:100C90006DE28FE495E00E947D0D6F854AE050E0A3
:100CA00070E08FE495E00E94170E6EE38FE495E00C
:100CB0000E947D0DBE018FE495E00E947B0D8F8127
:100CC000882369F06DE28FE495E00E947D0D6F81CD
:100CD0004AE050E070E08FE495E00E94170E6096C5
:100CE00082E0E82EF12C1EC06CE28FE495E00E94B9
:100CF0007D0DBE018FE495E00E947B0D8F818823DE
:100D000069F06DE28FE495E00E947D0D6F814AE00D
:100D100050E070E08FE495E00E94170EEFEFEE1ABE
:100D2000FE0A2896E016F106FCF26AE38FE495E0ED
:100D3000DF91CF911F910F91FF90EF90DF90CF90B7
:100D4000BF90AF909F908F907F906F900C947D0D8F
:100D5000CF9380914104C091420480950E94F10498
:100D60008C2F80950E94F1040E9472058FE495E01B
:100D7000CF910C94840D60913E0270913F0280E40B
:100D800092E00E94E0020C94ED02CF93DF93CDB786
:100D9000DEB768970FB6F894DEBF0FBECDBF88E10F
:100DA000ECE3F1E0DE01119601900D928A95E1F7F6
:100DB00063E070E0CE0101960E94C2058CE20E94C1
:100DC000610584E50E9461058BE291E00E94B60511
:100DD0008CE20E9461058CE40E94610582E291E050
:100DE0000E94B6058CE20E9461058CE60E946105B6
:100DF00088E191E00E94B6058CE20E94610583E5DE
:100E00000E94610582E191E00E94B6058CE20E9499
:100E1000610582ED91E00E94B6058CE091E00E94B0
:100E2000B6058CE20E94610584ED91E00E94B60552
:100E300080E091E00E94B6058CE20E94610586ED9B
:100E400091E00E94B60586E091E00E94B6058CE232
:100E50000E94610588ED91E00E94B6058AE00E943B
:100E600061050E94A8060E94BB0668960FB6F8941A
:100E7000DEBF0FBECDBFDF91CF9108951F920F92BD
:100E80000FB60F9211242F933F934F935F936F935D
:100E90007F938F939F93AF93BF93EF93FF930E94A2
:100EA0000A03FF91EF91BF91AF919F918F917F9135
:100EB0006F915F914F913F912F910F900FBE0F90C7
:100EC0001F9018952091720430E080917304281BC4
:100ED0003109C901089580917304909172048917B2
:100EE00050F4E82FF0E0EC58FB4F208130E08F5FAA
:100EF0008093730402C02FEF3FEFC9010895E09182
:100F0000730480917204E81730F4F0E0EC58FB4F62
:100F1000208130E002C02FEF3FEFC901089508950E
:100F2000CF92DF92EF92FF920F931F93CF93DF93B5
:100F30007C01CB018A0120914F04222391F0EB0127
:100F40006B01C40ED51E09C06991D701ED91FC91CA
:100F50000190F081E02DC7010995CC15DD05A1F7C1
:100F600003C0642F0E940208C801DF91CF911F9136
:100F70000F91FF90EF90DF90CF900895CF93DF9384
:100F80001F92CDB7DEB7698320914F042223D1F0A1
:100F900020915004203240F021E030E0FC01338306
:100FA000228320E030E015C080915104E82FF0E06A
:100FB000EE5AFB4F998190838F5F80935104809309
:100FC000500405C061E0CE0101960E94020821E0B4
:100FD00030E0C9010F90DF91CF910895FC01138299
:100FE000128248EE53E060E070E0448355836683EC
:100FF000778384EE91E091838083089583E494E085
:101000000C94EE07613298F420919D04243089F409
:1010100060939604FC018EEB94E0DC0102C0219108
:101020002D932A2F281B2617D0F380E0089581E006
:10103000089582E0089585ED8093BC008091BC0006
:1010400084FDFCCF10929D04089585EC8093BC0034
:1010500010929D0408951F920F920FB60F921124C3
:101060002F933F934F935F936F937F938F939F93B0
:10107000AF93BF93EF93FF938091B900887F803641
:1010800009F49FC058F5883209F45BC090F48031B0
:1010900009F452C038F4882309F4F8C0883009F004
:1010A000F9C04AC0883109F44CC0803209F0F2C05E
:1010B0005CC0803409F46BC038F4803309F455C047
:1010C000883309F0E7C054C0803509F454C088352E
:1010D00009F462C0883409F0DDC0DAC0883909F447
:1010E000CBC0A8F4883709F46CC038F4883609F40A
:1010F00068C0803709F0CEC064C0883809F4BCC02D
:10110000803909F464C0803809F0C4C060C0803BF5
:1011100009F48AC038F4803A09F46BC0883A09F0BF
:10112000B9C082C0803C09F4ABC0883C09F4A8C0B7
:10113000883B09F0AFC08DC080919C048093BB00B8
:1011400012C09091990480919804981788F5809125
:101150009904E82FF0E0E256FB4F90819093BB009A
:101160008F5F8093990485EC88C08093940490C02D
:101170008093940456C0809199049091BB00E82F0D
:10118000F0E0E256FB4F90838F5F8093990490913B
:101190009904809198046DC0809199049091BB004E
:1011A000E82FF0E0E256FB4F90838F5F8093990425
:1011B00080919B0481116CC081E080939A0484EA41
:1011C00060C083E080939D0410929504CCCF809101
:1011D0009504803208F050C0809195049091BB0036
:1011E000E82FF0E0EE51FB4F90838F5F80939504E2
:1011F000BACF80919504803230F4E0919504F0E00C
:10120000EE51FB4F10820E941B0860919504E09103
:10121000DE04F091DF0470E082EE94E00995109214
:1012200095040E94250836C084E080939D041092A6
:10123000970410929604E091E004F091E10409957E
:1012400080919604811105C081E0809396041092EC
:10125000BE0480919704E82FF0E0E254FB4F9081A8
:101260009093BB008F5F8093970490919704809137
:101270009604981708F477CF85E88093BC000AC0DD
:1012800085EC8093BC0010929D0404C010929404DD
:101290000E941B08FF91EF91BF91AF919F918F9199
:1012A0007F916F915F914F913F912F910F900FBE62
:1012B0000F901F90189520E001972FEF8F3F920716
:1012C000D9F70895EF92FF920F931F93CF93DF9377
:1012D000EC018B8DEE85FF859D8581FF04C08081AB
:1012E000892329F445C08081892309F041C08B8975
:1012F0009C890E945B0908E010E0EE24E394F12C45
:101300008D899E890E945B09EE85FF8580819D8580
:10131000892311F0FE2803C08E2D8095F822EE0C53
:101320000150110969F78F89988D0E945B098B8D97
:1013300081FDF094809103052091020590E00196D3
:101340008F73992730E08217930779F0E0910305B6
:10135000F0E0EC5FFA4FF0828091030590E0019697
:101360008F7399278093030503C08B8D81608B8FCA
:10137000DF91CF911F910F91FF90EF900895809191
:10138000440590914505009711F00C946209089569
:101390001F920F920FB60F9211242F933F934F93EA
:1013A0005F936F937F938F939F93AF93BF93EF93CD
:1013B000FF930E94BF09FF91EF91BF91AF919F9161
:1013C0008F917F916F915F914F913F912F910F90EE
:1013D0000FBE0F901F9018951F920F920FB60F928D
:1013E00011242F933F934F935F936F937F938F932A
:1013F0009F93AF93BF93EF93FF930E94BF09FF9119
:10140000EF91BF91AF919F918F917F916F915F917C
:101410004F913F912F910F900FBE0F901F901895F5
:101420001F920F920FB60F9211242F933F934F9359
:101430005F936F937F938F939F93AF93BF93EF933C
:10144000FF930E94BF09FF91EF91BF91AF919F91D0
:101450008F917F916F915F914F913F912F910F905D
:101460000FBE0F901F9018951F920F920FB60F92FC
:1014700011242F933F938F939F93AF93BF938091AA
:10148000460590914705A0914805B09149053091D6
:101490004E05232F2D5F2D3720F40196A11DB11D80
:1014A00005C0232F2A570296A11DB11D20934E057A
:1014B0008093460590934705A0934805B09349054E
:1014C00080914A0590914B05A0914C05B0914D0536
:1014D0000196A11DB11D80934A0590934B05A093E1
:1014E0004C05B0934D05BF91AF919F918F913F9166
:1014F0002F910F900FBE0F901F9018950F931F9371
:101500008FB7F89400914605109147052091480542
:10151000309149058FBFB801C9011F910F910895FE
:101520000F931F939FB7F89400914A0510914B05B4
:1015300020914C0530914D0586B5A89B06C08F3F84
:1015400021F00F5F1F4F2F4F3F4F9FBF322F212F93
:10155000102F0027080F111D211D311D42E0000F23
:10156000111F221F331F4A95D1F7B801C9011F91DE
:101570000F910895CF92DF92EF92FF92CF93DF9376
:101580006B017C010E94900AEB010EC00E94900A40
:101590006C1B7D0B683E734038F081E0C81AD1089F
:1015A000E108F108C851DC4FC114D104E104F10491
:1015B00069F7DF91CF91FF90EF90DF90CF90089582
:1015C000789484B5826084BD84B5816084BD85B51E
:1015D000826085BD85B5816085BDEEE6F0E08081E5
:1015E00081608083E1E8F0E0108280818260808306
:1015F000808181608083E0E8F0E080818160808389
:10160000E1EBF0E0808184608083E0EBF0E08081BA
:1016100081608083EAE7F0E080818460808380815C
:101620008260808380818160808380818068808304
:101630001092C1000895CF93DF9390E0FC01E85928
:10164000FD4F4491FC01E458FD4F8491882341F102
:1016500090E0880F991FFC01E656FD4F25913491CB
:10166000D90180579D4FFC0185919491C82FD92FA6
:101670009FB7F8948C91611106C0409584238C9398
:101680008881842308C0623041F4242F209582236E
:101690008C938881842B888302C0842B8C939FBF7A
:1016A000DF91CF910895FC0184859585FC01E05C74
:1016B000FF4F20813181FC01EE5BFF4F80819181E2
:1016C000281B390B2F733327C9010895FC0184852A
:1016D0009585FC01E05CFF4F40815181FC01EE5B90
:1016E000FF4F208131814217530741F00190F08173
:1016F000E02DE80FF91F208130E002C02FEF3FEF0F
:10170000C9010895FC0184859585FC01E05CFF4FCB
:1017100040815181FC01EE5BFF4F208131814217F6
:10172000530781F0A081B181A80FB91F8C9120814E
:1017300031812F5F3F4F2F73332731832083282F31
:1017400030E002C02FEF3FEFC9010895FC0186850C
:101750009785FC01E05CFF4FDC01AE5BBF4F408131
:1017600051812D913C91119742175307C1F708956C
:10177000CF93DF93FC0186859785DC01A05CBF4F8A
:101780002D913C9111972F5F3F4F2F733327EC0121
:10179000CE5BDF4F4881598124173507D9F30D906F
:1017A000BC91A02DA80FB91F6C93A685B785A05C2E
:1017B000BF4F11963C932E93A689B7892C9181E057
:1017C00090E0058C02C0880F991F0A94E2F7282B3D
:1017D0002C9381E090E0DF91CF91089508951F92BE
:1017E0000F920FB60F9211242F933F934F938F9325
:1017F0009F93EF93FF934091C6008091F2059091E3
:10180000F30501968F7399272091F4053091F50522
:101810008217930759F0E091F205F091F305EE5429
:10182000FA4F40839093F3058093F205FF91EF9177
:101830009F918F914F913F912F910F900FBE0F90DD
:101840001F9018958FE495E00E94530B892B11F09F
:101850000C94EE0B08951F920F920FB60F92112465
:101860002F933F938F939F93EF93FF932091AE0518
:101870003091AF058091B0059091B10528173907D7
:1018800031F48091C1008F7D8093C10014C0E0913C
:10189000B005F091B105E259FA4F20818091B00571
:1018A0009091B10501968F7399279093B10580931C
:1018B000B0052093C600FF91EF919F918F913F91CA
:1018C0002F910F900FBE0F901F901895CF92DF921F
:1018D000EF92FF92CF93DF93EC016A017B014115F8
:1018E00081EE580761057105F9F0EC89FD8981E009
:1018F00090E00E8C02C0880F991F0A94E2F7808353
:1019000060E079E08DE390E0A70196010E948E0EE1
:101910002150310941095109569547953795279529
:10192000211580E1380798F0EC89FD89108260E884
:1019300074E88EE190E0A70196010E948E0E21507E
:101940003109410951095695479537952795E889F9
:10195000F9893083EA89FB892083EE89FF894081F8
:1019600081E090E09C010A8C02C0220F331F0A9490
:10197000E2F7422B4083EE89FF8940819C010B8C6A
:1019800002C0220F331F0A94E2F7422B4083EE89F4
:10199000FF8940819C010C8C02C0220F331F0A94E6
:1019A000E2F7422B4083EE89FF8920810D8C02C033
:1019B000880F991F0A94E2F7809582238083DF9134
:1019C000CF91FF90EF90DF90CF9008951092520545
:1019D0001092510588EE93E0A0E0B0E080935305AB
:1019E00090935405A0935505B093560584EF91E06C
:1019F0009093500580934F0582EB95E090935C05A2
:101A000080935B058EE695E090935E0580935D057F
:101A100085EC90E09093600580935F0584EC90E006
:101A2000909362058093610580EC90E0909364054B
:101A30008093630581EC90E0909366058093650543
:101A400086EC90E0909368058093670584E080932E
:101A5000690583E080936A0587E080936B0585E0E4
:101A600080936C0581E080936D0508950E94E00AE3
:101A70000E944404C2E2DCE00E947F042097E1F36C
:101A80000E94220CF9CFCF92DF92EF92FF920F9338
:101A90001F93CF93DF936C01EB017A01E60EF71EE3
:101AA00000E010E00BC06991D601ED91FC9101902E
:101AB000F081E02DC6010995080F191FCE15DF052D
:101AC00091F7C801DF91CF911F910F91FF90EF9097
:101AD000DF90CF900895DB010D900020E9F7AD0174
:101AE00041505109461B570BDC01ED91FC910280DE
:101AF000F381E02D09940C946B0DDC01ED91FC91C8
:101B00000190F081E02D09940F931F93CF93DF9301
:101B1000EC016DE00E947D0D8C016AE0CE010E9417
:101B20007D0D9C01200F311FC901DF91CF911F91C5
:101B30000F9108950F931F93CF93DF93EC010E94B1
:101B40006B0D8C01CE010E94840D9801280F391F66
:101B5000C901DF91CF911F910F9108954F925F922C
:101B60006F927F929F92AF92BF92CF92DF92EF924D
:101B7000FF920F931F93CF93DF93CDB7DEB7A1975B
:101B80000FB6F894DEBF0FBECDBF5C016A017B01CA
:101B9000922E19A281E0821710F08AE0982E8E0111
:101BA0000F5D1F4F492C512C612C712CC701B601C0
:101BB000A30192010E948E0E8C2D929E80191124F9
:101BC000015011098A3014F4805D01C0895CF8016C
:101BD000808369017A01C114D104E104F10431F771
:101BE000B801C5010E946B0DA1960FB6F894DEBF37
:101BF0000FBECDBFDF91CF911F910F91FF90EF905E
:101C0000DF90CF90BF90AF909F907F906F905F904C
:101C10004F9008952115310541F4DC01ED91FC91BF
:101C20000190F081E02D642F09940C94AE0D9A017F
:101C3000AB0160E070E00C940A0ECF92DF92EF925D
:101C4000FF920F931F93CF93DF93EC016A017B0107
:101C50002115310579F4E881F9810190F081E02DB9
:101C6000642FDF91CF911F910F91FF90EF90DF9044
:101C7000CF9009942A30310519F477FD0EC02AE07F
:101C8000B701A601CE01DF91CF911F910F91FF9077
:101C9000EF90DF90CF900C94AE0D6DE20E947D0D21
:101CA0008C0144275527BA014C195D096E097F093B
:101CB0002AE0CE010E94AE0D080F191FC801DF9166
:101CC000CF911F910F91FF90EF90DF90CF900895EB
:101CD0000F931F93CF93DF93EC019A01AB0166271B
:101CE00057FD6095762F0E941D0E8C01CE010E943B
:101CF000840D9801280F391FC901DF91CF911F91E1
:101D00000F910895A29FB001B39FC001A39F01D07E
:101D1000B29F700D811D1124911D0895A1E21A2E0C
:101D2000AA1BBB1BFD010DC0AA1FBB1FEE1FFF1F7F
:101D3000A217B307E407F50720F0A21BB30BE40BCF
:101D4000F50B661F771F881F991F1A9469F7609516
:101D50007095809590959B01AC01BD01CF010895D0
:101D6000EE0FFF1F0590F491E02D0994FB01DC01BB
:101D70004150504048F001900D920020C9F701C039
:0E1D80001D9241505040E0F70895F894FFCFB7
:101D8E0020000000000020000000000020000000E5
:101D9E0000002000000000002000000000000000F5
:101DAE0000002000000000000000002000000000E5
:101DBE0000200000000000000001FFFF41505253C0
:101DCE0000000000474743505400000B574944455C
:101DDE0032000001537461727420636861722024B2
:101DEE0020666F756E6400456E64206368617220B4
:101DFE002320666F756E64002064617461203A2042
:101E0E002000203A200024F400000002736574754F
:101E1E0070206166736B00736574757020736572E4
:101E2E0069616C207061727365720041505253206B
:101E3E00474743505420496E697469616C697361F8
:101E4E0074696F6E00000000009D0493048F045DA2
:101E5E002000410048004D00474743505478310060
:101E6E0000000000BE07900762076B077F078F0711
:101E7E0000000000B80B430D530B820B660BA60B34
:00000001FF
