:100000000C94E4000C94AE1E0C94DB1E0C94800542
:100010000C94A4050C94C8050C940C010C940C01D0
:100020000C940C010C940C010C940C010C940C011C
:100030000C940C010C940C010C940C010C940C010C
:100040000C949D1F0C940C010C94C3210C94FF2163
:100050000C940C010C940C010C940C010C940C01EC
:100060000C940C010C940C01BC09CF09DF09F209B6
:10007000FA09280A300A3B0A430A4D0A4D0A4D0A7A
:100080004D0A4D0A4D0A4D0A4D0A4D0A4D0A4D0AB8
:100090004D0A4D0A4D0A4D0A4D0A4D0A4D0A4D0AA8
:1000A0004D0A4D0A4D0A4D0ABC09C809CF09DF099E
:1000B000F209FA090D0A150A1D0A00C20100010021
:1000C000110011000C0000E100000A0025002500CD
:1000D0002100009600001900390039003600127A1C
:1000E00000001F004600460044008070000022000F
:1000F0004D004D004A00004B0000360075007500B1
:100100007200403800004A009C009C009900802545
:1001100000007200EC00EC00E900C0120000E900F1
:10012000DA01DA01D70160090000D701B603B6038E
:10013000B303B0040000B3036E076E076B075802E9
:1001400000006E07DC0EDC0ED80E2C010000DC0E69
:10015000C11DC11DBE1D7C3C3E5E2B3D3F2F5B5D26
:100160003B2C2A225C000000000700020100000373
:100170000406000000000000000001020408102036
:100180004080010204081020010204081020040429
:10019000040404040404020202020202030303032F
:1001A00003030000000023002600290000000000D7
:1001B000250028002B0000000000240027002A0052
:1001C000FA03310EBA22090411241FBECFEFD8E082
:1001D000DEBFCDBF13E0A0E0B1E0EEEFF2E502C07C
:1001E00005900D92AC35B107D9F717E0ACE5B3E057
:1001F00001C01D92A235B107E1F711E0C6ECD1E0D4
:1002000004C02297FE010E94EB24C03CD107C9F72D
:100210000E940A230C9472290C94000080916203BE
:100220009091630301969093630380936203089512
:100230000F931F93CF93DF93CDB7DEB76B970FB6B6
:10024000F894DEBF0FBECDBF40E855E260E070E03D
:1002500087EA96E00E943A2242E050E06EE071E0C8
:1002600080E00E948E1E40E855E260E070E084E687
:1002700093E00E946A0661E08091DD010E94B8204F
:1002800060E08091DB010E94B82061E088E00E947C
:10029000F02063EE71E087EA96E00E946E236AE147
:1002A00072E087EA96E00E946E2361E08AE00E9495
:1002B000B8206AE088E494E00E94850C811107C0B0
:1002C00062E372E087EA96E00E946E23ABC061E5CC
:1002D00072E087EA96E00E946E2310E00AE0812F28
:1002E000602F0E948B24805D8093D301905D90935A
:1002F000D4016EEC71E088E494E00E94260E811136
:1003000053C023E14EEC51E068E474E0CE01019665
:100310000E94A00D8B819C819093EC038093EB0352
:100320008D819E81AF81B8858093ED039093EE031C
:10033000A093EF03B093F00389859A85AB85BC85C4
:100340008093F1039093F203A093F303B093F4032B
:100350008DE0FE013D96A5EFB3E001900D928A95E8
:10036000E1F78A8D9B8D9093030480930204CE0164
:1003700001960E94260F6EE672E087EA96E00E94E0
:100380004F236EEC71E087EA96E00E946E2389EEBF
:1003900093E00E94890F4AE050E0682F70E087EAFE
:1003A00096E00E944E2404C01F5F143609F097CFD8
:1003B00066E071E087EA96E00E946E2366E071E0F5
:1003C00089EE93E00E946E236DE772E089EE93E080
:1003D0000E946E2389EE93E00E946A0E6DE772E040
:1003E00087EA96E00E946E230E94E71F60935E03F7
:1003F00070935F0380936003909361031092630393
:100400001092620360916203709163034AE050E0CE
:1004100087EA96E00E94EB2364E670E080E090E0DB
:100420000E9423206B960FB6F894DEBF0FBECDBF9F
:10043000DF91CF911F910F910895AF92BF92CF920C
:10044000DF92EF92FF920F931F93CF93DF93CDB77D
:10045000DEB764970FB6F894DEBF0FBECDBF5C0168
:100460006CEB72E086E091E00E947C2666E071E031
:1004700089EE93E00E944F2389EE93E00E946A0E7A
:1004800066E071E087EA96E00E944F239E012F5EAE
:100490003F4FAE01435F5F4FBE01675F7F4FC501B6
:1004A0000E941D0B88898F938F858F938E858F93E4
:1004B0008D858F938C858F938B858F938A858F9372
:1004C00089858F9385EC92E09F938F9306E011E0EE
:1004D0001F930F930E949A26B80189EE93E00E9421
:1004E0004F2389EE93E00E946A0EB80187EA96E0F6
:1004F0000E944F239E012F5E3F4FAE014F5F5F4F23
:10050000BE016B5F7F4FC5010E94CF0A6D817E8166
:100510008F81988520EAC22E26E8D22EEE24E3941D
:10052000F12CA70196010E94CD249F938F937F9376
:100530006F933F932F9382ED92E09F938F931F933E
:100540000F930E949A26B80189EE93E00E944F23F0
:1005500089EE93E00E946A0EB80187EA96E00E9455
:100560004F2369817A818B819C81A70196010E942A
:10057000CD249F938F937F936F933F932F938DED14
:1005800092E09F938F931F930F930E949A260FB62A
:10059000F894DEBF0FBECDBFB80189EE93E00E9494
:1005A0004F2389EE93E00E946A0EB80187EA96E035
:1005B0000E944F23F50160A171A182A193A124E6BD
:1005C00030E040E050E00E94CD243F932F9388EE2E
:1005D00092E09F938F931F930F930E949A26B801E6
:1005E00089EE93E00E944F2389EE93E00E946A0E09
:1005F000B80187EA96E00E944F23F50120A531A5B6
:1006000042A553A50F900F900F900F900F900F9051
:10061000293EF3E03F074105510518F020E030E0A6
:10062000A901ACE3B7E00E94682420EA36E841E083
:1006300050E00E94AB243F932F9388EE92E09F936B
:100640008F9386E091E09F938F930E949A2666E0B5
:1006500071E089EE93E00E944F2389EE93E00E94BF
:100660006A0E66E071E087EA96E00E944F230F90E1
:100670000F900F900F900F900F9064960FB6F89414
:10068000DEBF0FBECDBFDF91CF911F910F91FF90C5
:10069000EF90DF90CF90BF90AF9008950BC084E6AD
:1006A00093E00E941104682F80E893E00E94550AAD
:1006B000811108C084E693E00E945E04892B79F7DB
:1006C00080E0089581E00895CF92DF92EF92FF924B
:1006D000CF93DF930E94E71F6B017C01C0E004C051
:1006E0000E944E038111C1E00E94E71F6C197D0931
:1006F0008E099F09673E73408105910588F3CC23DD
:1007000009F471C061E08091DD010E94F0208BE06E
:1007100090E00E94492060E08091DD010E94F0207D
:1007200020E432E44FE050E061E08091DB010E9480
:10073000081FEB0180E893E00E941D028091620394
:100740009091630390935D0380935C031092630325
:1007500010926203CE016AE370E00E9497247F93B7
:100760006F9388EE92E09F938F93C6E0D1E0DF9382
:10077000CF930E949A26BE0189EE93E00E944F23F8
:1007800089EE93E00E946A0EBE0187EA96E00E941D
:100790004F2380915D038F9380915C038F938CEE48
:1007A00092E09F938F93DF93CF930E949A26BE018E
:1007B00089EE93E00E946E2389EE93E00E946A0E18
:1007C0008DB79EB70C960FB6F8949EBF0FBE8DBF27
:1007D000BE0187EA96E0DF91CF91FF90EF90DF9026
:1007E000CF900C946E23DF91CF91FF90EF90DF902C
:1007F000CF90089589EE93E00E94130F80E893E074
:100800000E943B0720E04FEF67E084E693E00C9402
:100810003A0684E693E00E94340789EE93E00C9454
:10082000260F209146043091470428173907C1F458
:100830009091040480910504981791F0E0910404CC
:10084000F0E0EA5FFB4F80812091040430E02F5FED
:100850003F4F2F73332720930404282F30E002C02A
:100860002FEF3FEFC90108952091460430914704CE
:100870002817390781F49091040480910504981792
:1008800051F0E0910404F0E0EA5FFB4F2081332750
:1008900027FD309502C02FEF3FEFC9010895209149
:1008A0004604309147042817390739F48FB7F89474
:1008B00010920504109204048FBF089520914604FD
:1008C000309147042817390779F480910504209165
:1008D000040490E0805C9F4F821B910960E470E00B
:1008E0000E9497249C0102C020E030E0C9010895D5
:1008F000DC015196ED91FC915297208150968C919C
:10090000809582238083089520E001972FEF8F3F09
:100910009207D9F70895209146043091470428178B
:10092000390789F0FC01238D2E7F238F2FB7F89490
:100930001092050410920404909347048093460497
:100940002FBF81E0089580E00895EF92FF920F930A
:100950001F93CF93DF93EC018B8DEE85FF859D85F3
:1009600081FF04C08081892329F445C080818923C7
:1009700009F041C08B899C890E94840408E010E042
:10098000EE24E394F12C8D899E890E948404EE85E7
:10099000FF8580819D85892311F0FE2803C08E2D5F
:1009A0008095F822EE0C0150110969F78F89988D16
:1009B0000E9484048B8D81FDF09480910504209128
:1009C000040490E001968F73992730E08217930713
:1009D00079F0E0910504F0E0EA5FFB4FF08280914E
:1009E000050490E001968F7399278093050403C056
:1009F0008B8D81608B8FDF91CF911F910F91FF9035
:100A0000EF900895611102C00C947804DC015196B6
:100A1000ED91FC915297208150968C91282B208348
:100A20000895DF92EF92FF920F931F93CF93DF937E
:100A3000EC01E62E898D9A8D892B39F481E090E0C6
:100A40009B838A8320E030E049C0DFB6F8946B8D49
:100A500066956170CE010E940205898D9A8D05967A
:100A60000E9484048B8D08E010E0FF24F39481FF42
:100A700017C08F2D8E2121F0CE010E94780404C072
:100A800061E0CE010E940205898D9A8D0E94840446
:100A9000FF0C0150110969F7CE010E94780417C0BC
:100AA0008F2D8E2129F061E0CE010E94020503C046
:100AB000CE010E947804898D9A8D0E948404FF0CD7
:100AC0000150110969F761E0CE010E940205DFBE05
:100AD000898D9A8D0E94840421E030E0C901DF9164
:100AE000CF911F910F91FF90EF90DF90089580912B
:100AF000460490914704009711F00C94A5040895C2
:100B00001F920F920FB60F9211242F933F934F9382
:100B10005F936F937F938F939F93AF93BF93EF9365
:100B2000FF930E947705FF91EF91BF91AF919F9145
:100B30008F917F916F915F914F913F912F910F9086
:100B40000FBE0F901F9018951F920F920FB60F9225
:100B500011242F933F934F935F936F937F938F93C2
:100B60009F93AF93BF93EF93FF930E947705FF91FD
:100B7000EF91BF91AF919F918F917F916F915F9115
:100B80004F913F912F910F900FBE0F901F9018958E
:100B90001F920F920FB60F9211242F933F934F93F2
:100BA0005F936F937F938F939F93AF93BF93EF93D5
:100BB000FF930E947705FF91EF91BF91AF919F91B5
:100BC0008F917F916F915F914F913F912F910F90F6
:100BD0000FBE0F901F9018951F93CF93DF93EC01DA
:100BE000162F61E0812F0E94B82061E0812F0E94C2
:100BF000F020812F90E0FC01E658FE4FE491E88B55
:100C0000FC01E257FE4FE491F0E0EE0FFF1FE455C8
:100C1000FE4F85919491898B9A8BDF91CF911F9193
:100C200008951F93CF93DF93EC01162F60E0812F7F
:100C30000E94B8208B8D81FD04C061E0812F0E944D
:100C4000F0201C87812F90E0FC01E658FE4FE491D4
:100C5000ED87FC01E257FE4FE491F0E0EE0FFF1F3D
:100C6000EE55FE4F859194918E879F87DF91CF91AE
:100C70001F910895FF920F931F93CF93DF93EC0181
:100C8000F62E522F1B821A8208EE13E020E030E08D
:100C90000C831D832E833F8385EF92E099838883A5
:100CA0001C8A1B8A1E8A1D8A188E1F8A1A8E198E0C
:100CB0008B8D8E7F50FB81F98B8F642FCE010E942C
:100CC000EC056F2DCE01DF91CF911F910F91FF9019
:100CD0000C941106FF920F931F93CF93DF93EC01B7
:100CE0001A8E198E188E1F8A1E8A1D8A1C8A1B8ACC
:100CF000A0E0B0E02CE0F22EFA9EC001FB9E900D29
:100D00001124FC01E654FF4F059115912591349172
:100D10000417150726073707E9F4FC01E254FF4FD3
:100D2000259134912B8B3C8BFC01E054FF4F259196
:100D300034912D8B3E8BFC01EE53FF4F2591349166
:100D40002F8B388F8C539F4FFC0185919491898F05
:100D50009A8F05C01196AD30B10509F0CDCF8F89BE
:100D6000988D892B09F449C03C85363108F041C083
:100D700040916800383068F081E090E03E3010F437
:100D800080E090E021E030E001C0220F8A95EAF790
:100D900001C024E0242B209368003C85383038F0D3
:100DA0003E3040F0363148F0E0E0F0E008C0EDE6DB
:100DB000F0E005C0EBE6F0E002C0ECE6F0E04081D8
:100DC000383040F481E090E0282F01C0220F3A959E
:100DD000EAF70DC0832F90E03E3010F4089701C071
:100DE0000E9721E030E001C0220F8A95EAF7242B0C
:100DF0002083898D9A8D0E948404CE01DF91CF914A
:100E00001F910F91FF900C948B04FC014485463197
:100E100050F5483028F04E3030F4EBE6F0E005C0F5
:100E2000EDE6F0E002C0ECE6F0E05081483040F43E
:100E300081E090E0042E01C0880F0A94EAF710C008
:100E4000242F30E04E3018F42850310902C02E50C3
:100E5000310981E090E0022E01C0880F0A94EAF780
:100E6000809585238083089525EF32E0FC0131834E
:100E700020830C9405070F931F93FC010FEF1FEFC6
:100E80009801008311832283338310861186128692
:100E900013864FEF59EC6AE97BE3408B518B628BF1
:100EA000738B408F518F628F738F40A351A362A3C6
:100EB00073A340A751A762A773A740AB51AB62AB26
:100EC00073AB00AF11AF22AF33AFDC01A05CBF4FFB
:100ED0008FEF90E08D939C93DF01AC5BBF4F0D9340
:100EE0001D932D933C931397DF01A45BBF4F0D938C
:100EF0001D932D933C931397DF01AC5ABF4F1C9267
:100F0000DF01AB5ABF4F1C92DF01AB59BF4F82E0EC
:100F10008C93DF01AA59BF4F1C92DF01A959BF4F23
:100F20001C92DF01A859BF4F1C92EA5AFF4F108252
:100F30001F910F910895862F8154262F332727FD67
:100F40003095863018F42753310908C06156663051
:100F500018F42755310902C020533109C9010895F9
:100F6000CF93FB0120E030E0A90114C0AAE0B0E07B
:100F70000E9468249B01AC018C2F992787FD9095D6
:100F8000A92FB92F280F391F4A1F5B1F2053310982
:100F900041095109C1918C2F80538A3038F3B9012E
:100FA000CA01CF9108952F923F924F925F926F9214
:100FB0007F928F929F92AF92BF92CF92DF92EF92E9
:100FC000FF920F931F93CF93DF93EC01CA5ADF4F29
:100FD000BE010E94B0073B018C0124E630E040E0F6
:100FE00050E00E94AB249B01AC01A0E1B7E20E945B
:100FF00068246B017C01FE018191982F90539A30F7
:10100000D8F38E3231F5EF0188EE882E83E0982EEA
:10101000A12CB12C9AE0292E312C412C512C14C03A
:10102000BB27A7FDB095D097A50194010E9473241A
:10103000C60ED71EE81EF91EC501B401A20191011A
:101040000E94AB2449015A01A9918A2F80538A300A
:1010500038F3C701B60126E030E040E050E00E94DE
:10106000AB2469017A01B301C80124E630E040E015
:1010700050E00E94AB2460EA76E881E090E00E94B4
:101080007B24C60ED71EE81EF91EB601C701DF91EC
:10109000CF911F910F91FF90EF90DF90CF90BF9075
:1010A000AF909F908F907F906F905F904F903F9008
:1010B0002F900895FF920F931F93CF93DF93EC012E
:1010C000CA5ADF4FFF24F39428812D3211F0F12CFE
:1010D00003C0EC01C95ADF4FBE010E94B0079B015B
:1010E000AC01A4E6B0E00E9468248B019C01FE01E3
:1010F0008991982F90539A30D0F38E3221F58181C7
:10110000982F90539A30F8F44AE08402C0011124D9
:10111000805E9140AA2797FDA095BA2F080F191F4E
:101120002A1F3B1F8281982F90539A3060F4992791
:1011300087FD9095C097AA2797FDA095BA2F080F15
:10114000191F2A1F3B1FFF2039F03095209510955D
:1011500001951F4F2F4F3F4FB801C901DF91CF912C
:101160001F910F91FF900895FB01DA01819188236F
:1011700019F09D918917D1F3282F332727FD30953A
:10118000932F0895EF92FF920F931F93CF93DF93C6
:10119000EC01FC01EB5AFF4F8081FE01882309F42A
:1011A000AAC0EA5AFF4F6081CE010E949B07182F08
:1011B000FE01E95AFF4F6081CE010E949B0720E1AA
:1011C000129F800D1124FE01EC5AFF4F908189136C
:1011D00064C1FE01E859FF4F8081882309F45DC195
:1011E000FE01EC5BFF4FDE01A85BBF4F8D919D912F
:1011F0000D90BC91A02D80839183A283B383FE01C7
:10120000E45BFF4FDE01A05BBF4F8D919D910D9080
:10121000BC91A02D80839183A283B383FE01EB59FF
:10122000FF4F80818823A1F1813009F034C18C8186
:101230009D81AE81BF8188839983AA83BB838C857E
:101240009D85AE85BF8588879987AA87BB878C894E
:101250009D89AE89BF89888B998BAA8BBB8B8C8D1E
:101260009D8DAE8DBF8D888F998FAA8FBB8F8CA5DA
:101270009DA5AEA5BFA588A799A7AAA7BBA78CA91E
:101280009DA9AEA9BFA988AB99ABAAABBBAB03C163
:101290008CA19DA1AEA1BFA188A399A3AAA3BBA322
:1012A0008C819D81AE81BF8188839983AA83BB8312
:1012B0008C899D89AE89BF89888B998BAA8BBB8BC2
:1012C0008C8D9D8DAE8DBF8D888F998FAA8FBB8F92
:1012D000FE01E05CFF4FDE01AE5BBF4F8D919C9144
:1012E000918380838CAD9DADAEADBFAD88AF99AF1E
:1012F000AAAFBBAFD0C0EA59FF4F9081911120C077
:101300007E0186E5E80EF11C41E053E0B701CE0115
:101310000E94B4088E010B591F4F892B11F481E0F4
:101320000CC047E053E0B701CE010E94B408892BFE
:1013300019F4F8011082B1C082E0F8018083ADC0D9
:10134000FE01EB59FF4FE081E23009F4A6C0DE0157
:10135000AA5ABF4F8C91882309F49FC020E2E29FD4
:10136000F0011124E92B3197E932F10508F095C01D
:10137000EC5CFF4F0C94E924CE010E945A086C8368
:101380007D838E839F830E94E71FC85BDF4F12C05F
:10139000C859DF4F91E0813409F460C05EC0CE01CE
:1013A0000E94D3076C8B7D8B8E8B9F8B0E94E71FD7
:1013B000C05BDF4F688379838A839B836EC08335EC
:1013C00009F06BC08C899D89AE89BF89B095A095C5
:1013D000909581959F4FAF4FBF4F8C8B9D8BAE8B60
:1013E000BF8B5BC0CE010E94D3076C8F7D8F8E8F29
:1013F0009F8F53C0873509F050C08C8D9D8DAE8D69
:10140000BF8DB095A095909581959F4FAF4FBF4FE1
:101410008C8F9D8FAE8FBF8F40C0CE010E945A0827
:101420006CA77DA78EA79FA738C0CE010E945A083F
:101430006CAB7DAB8EAB9FAB30C0BE016A5A7F4FA9
:10144000CE010E94B0076C877D878E879F8725C05D
:10145000C859DF4F91E081330CF490E098831DC0B0
:10146000CE018A5A9F4F0E944626CE5BDF4F9927B6
:101470009983888312C0CE010E945A086CAF7DAF59
:101480008EAF9FAF0AC0CE010E945A086CA37DA305
:101490008EA39FA302C081E001C080E0DF91CF91C5
:1014A0001F910F91FF90EF9008950F931F93CF938B
:1014B000DF931F92CDB7DEB78C01FC01E959FF4FD6
:1014C0006432C1F134F46A3079F06D3009F049C00A
:1014D0000BC06A3249F06C3209F043C0FC01EC5A8F
:1014E000FF4F808186278083F801E959FF4F808173
:1014F0008F3060F4F801E80FF11DEA5AFF4F1082B7
:10150000C80169830E94C208698101C080E0F801B6
:10151000EA59FF4F90819F5F9083F801E959FF4F8F
:101520001082F801EB5AFF4F91E06A3209F090E027
:1015300090832FC01082FC01EA59FF4F1082FC01FA
:10154000EC5AFF4F1082FC01EB59FF4F82E0808381
:10155000F801EB5AFF4F1082F801E859FF4F108253
:1015600017C080818E3040F4D801A80FB11DAA5A4F
:10157000BF4F6C938F5F8083F801EB5AFF4F8081E0
:10158000811106C0F801EC5AFF4F808186278083C5
:1015900080E00F90DF91CF911F910F910895CF922E
:1015A000DF92EF92FF920F931F93CF93DF93E901A6
:1015B0006115710551F0FC01C088D188E288F3887B
:1015C000FB01C082D182E282F3824115510551F0C4
:1015D000FC01C08CD18CE28CF38CFA01C082D182E8
:1015E000E282F382209701F18C01045B1F4FF80126
:1015F00080819181A281B3818F3F9F4FAF4FBF4FB9
:1016000061F00E94E71FF80100811181228133817E
:10161000601B710B820B930B03C06FEF7FEFCB014D
:10162000688379838A839B83DF91CF911F910F9188
:10163000FF90EF90DF90CF900895CF92DF92EF92DE
:10164000FF920F931F93CF93DF93E901611571050B
:1016500051F0FC01C084D184E284F384FB01C08298
:10166000D182E282F3824115510551F0FC01C08024
:10167000D180E280F380FA01C082D182E282F382DB
:10168000209701F18C010C5B1F4FF8018081918143
:10169000A281B3818F3F9F4FAF4FBF4F61F00E9438
:1016A000E71FF8010081118122813381601B710BDA
:1016B000820B930B03C06FEF7FEFCB0168837983BD
:1016C0008A839B83DF91CF911F910F91FF90EF90C1
:1016D000DF90CF9008951F93CF93DF93CDB7DEB700
:1016E0006D970FB6F894DEBF0FBECDBFAB011C8265
:1016F0001B8227E433E03A8329831E8221E0BC0168
:10170000CE0101960E94F018182F882321F0CE01F7
:1017100001960E94B617812F6D960FB6F894DEBF22
:101720000FBECDBFDF91CF911F910895EF92FF9231
:101730000F931F93CF93DF93EB0128813981FC0135
:10174000E20FF31FE081EF3211F42F5F3F4FDA0118
:10175000E0E0F0E07C01E20EF31E87010E0F1F1F98
:10176000E80118811F3289F0111119C00EC02F5FD6
:101770003F4FFB0131832083FC01E20FF31F81E027
:101780009081911114C080E012C0E40FF51F108207
:10179000FC01E20FF31F40814F3259F7E8CF1D9350
:1017A00031962F5F3F4FEC30F10579F3D6CFDF91C3
:1017B000CF911F910F91FF90EF9008952F923F923C
:1017C0004F925F926F927F928F929F92AF92BF9251
:1017D000CF92DF92EF92FF920F931F93CF93DF93FD
:1017E000CDB7DEB7CA54D1090FB6F894DEBF0FBE2D
:1017F000CDBF5C016B013A01490119A218A287E42F
:1018000093E09F8F8E8F1BA21C821B829A838983F9
:101810001E82FE01E85BFF4F118210828B017E0168
:101820008EE1E80EF11C3E2E2F2E44244394512CC1
:101830004C0E5D1E08C0902F812F02C0942D852D67
:101840008701E92EF82EAE01455C5F4F632D722DA6
:10185000C5010E94960B582F41E048279401BE0114
:10186000655C7F4FC8012B965FAF2B97F3010995FD
:101870002B965FAD2B97811109C00C151D0509F43E
:1018800003C0C8010E94B61780E025C05523C1F0EF
:1018900021E0AE01455C5F4FB801C7010E94F0181E
:1018A000282F0C151D05A1F0C8012B962FAF2B97E3
:1018B0000E94B6172B962FAD2B972111BCCFE4CFEA
:1018C0000C151D0519F0C8010E94B61781E003C070
:1018D0008111B4CFD9CFC65BDF4F0FB6F894DEBF0E
:1018E0000FBECDBFDF91CF911F910F91FF90EF9071
:1018F000DF90CF90BF90AF909F908F907F906F9030
:101900005F904F903F902F9008950F931F93CF9328
:10191000DF93EC01462F61E00E94771C811101C02A
:1019200012C08E01045F1F4F41E0BE01C8010E943A
:101930003013882351F0B801CE018A960E941D15FC
:1019400091E081110AC090E008C040E0BE01C801EA
:101950000E9430138823B9F3EECF892FDF91CF9106
:101960001F910F910895FC01DB0112968D919C91BE
:1019700013979383828387E493E091838083149603
:101980008C911497848315968C9115978583169660
:101990004D915D916D917C91199746835783608736
:1019A00071871A964D915D916D917C911D9742873B
:1019B0005387648775871E964D915D916D917C91DB
:1019C000519746875787608B718B52968C915297AF
:1019D000828B53964D915D916D917C915697438B7F
:1019E000548B658B768B57964D915D916D917C9163
:1019F0005A97478B508F618F728F5B968D919C9118
:101A00005C97948F838F08954F925F926F927F922D
:101A10008F929F92AF92BF92CF92DF92EF92FF92FE
:101A20000F931F93CF93DF93CDB7DEB7C754D10980
:101A30000FB6F894DEBF0FBECDBF6C014A0139016D
:101A4000665D7F4F5E018EE1A80EB11CC5010E944C
:101A5000B30C1C821B8287E493E09A8389831E82E5
:101A60008401EE24E394F12CEC0EFD1E5A2C4B2C39
:101A70003CC0F80120812F3219F40F5F1F4F35C091
:101A8000801B8D3008F08CE0A82EB12CA501B80188
:101A9000CE01CB960E948326EBE3F0E0EC0FFD1F16
:101AA000EA0DFB1D1082C7010E94B61721E0AE01AE
:101AB000455C5F4F652D742DC7010E94F0188111A0
:101AC00009C0F6011382128287E493E09183808338
:101AD00015821DC00A0D1B1D852D942D0E94B61761
:101AE000C2015E2C4F2CE92EF82E6FE270E0C80187
:101AF0000E947126009709F0BCCF08191909F3015B
:101B000011830083652D742DC6010E94B30CC6019C
:101B1000C95BDF4F0FB6F894DEBF0FBECDBFDF91BC
:101B2000CF911F910F91FF90EF90DF90CF90BF90DA
:101B3000AF909F908F907F906F905F904F9008959F
:101B4000BF92CF92DF92EF92FF920F931F93CF93AA
:101B5000DF93CDB7DEB7C955D1090FB6F894DEBF14
:101B60000FBECDBF7C016A01B22E9E01285A3F4FA5
:101B7000CE01CB960E94040D6A960EAD1FAD6A97FA
:101B80000C0D1D1DF801808181110AC0BE01655C2C
:101B90007F4FCE0101960E94B30C41E353E03EC05B
:101BA00019A218A287E493E09F8F8E8F1BA2219623
:101BB0008FAD2197811104C0C7010E94130F34C05B
:101BC00082502B2DA801823048F462E774E0CE01E8
:101BD0004E960E94F01881110EC0EECFBE01655CDA
:101BE0007F4FCE014E960E94F018882329F3CE0134
:101BF000CB960E94B6178B2D867041F049A95AA941
:101C00006BA97CA9CE014E960E94D416BE01625EDD
:101C10007F4FCE0101960E94B30CA801BE016F5FF9
:101C20007F4FC7010E94DA0EC701C75ADF4F0FB6B8
:101C3000F894DEBF0FBECDBFDF91CF911F910F9102
:101C4000FF90EF90DF90CF90BF900895FB01BC0113
:101C5000665D7F4F20E030E04BE65BE0CF010C9407
:101C6000DE0B10924D0410924E041092510410920B
:101C7000530482E090E0A0E0B0E08093540490939D
:101C80005504A0935604B093570410926B0410921D
:101C900075041092740487E493E090937304809326
:101CA0007204109277040895CF93DF931F92CDB7FB
:101CB000DEB76983DC01ED91FC910280F381E02DB8
:101CC00041E050E0BE016F5F7F4F09950F90DF91BB
:101CD000CF910895FC01818D928D009711F00C94A5
:101CE0006F170895CF93DF93EC01898D9A8D00973C
:101CF00009F40CC0FC01138212820E94ED199C01B0
:101D0000E98DFA8D82819381892B31F081E090E019
:101D10009B838A8320E030E0C901DF91CF91089551
:101D2000CF93DF931F92CDB7DEB741E050E0BE0105
:101D30006F5F7F4F0E946D15019719F4298130E084
:101D400002C02FEF3FEFC9010F90DF91CF910895AF
:101D5000FC01818D928D009711F00C94900E8FEF05
:101D60009FEF08950F931F93CF93DF938C01FC0196
:101D7000818D928D0097B1F00E94900EEC018F3F03
:101D8000FFEF9F0789F0F801818D928DFC0142855C
:101D900053856485758541505109610971090E9417
:101DA000D41602C0C0E0D0E0CE01DF91CF911F91E8
:101DB0000F910895CF92DF92EF92FF920F931F93AE
:101DC000CF93DF93EC017B016A011B821A8208EE3C
:101DD00013E020E030E00C831D832E833F8387E3F4
:101DE00093E0998388838DE190E00E940F25DC01C8
:101DF0009A8F898F009771F08DE1F70101900D9214
:101E00008A95E1F74CE050E0B601CE010C960E94B5
:101E10008326188EDF91CF911F910F91FF90EF9045
:101E2000DF90CF900895FC011382128248EE53E0B8
:101E300060E070E0448355836683778387E393E0B3
:101E400091838083128E118E1486089527E333E0E8
:101E5000FC013183208308950F931F93DC01599671
:101E6000ED91FC915A97309729F0028513852485CE
:101E7000358503C00FEF1FEF9801B801C9011F910D
:101E80000F9108950F931F93DC015996ED91FC91EA
:101E90005A97309729F0038914892589368903C018
:101EA00000E010E09801B801C9011F910F91089559
:101EB000CF92DF92EF92FF92CF93DF93EC01898D67
:101EC0009A8D892BE1F0CE010E94420F6B017C01BB
:101ED000CE010E942C0FA7019601261B370B480B41
:101EE000590BDA01C901811530E89307A105B10545
:101EF00020F08FEF9FE7A0E0B0E09C0102C020E05F
:101F000030E0C901DF91CF91FF90EF90DF90CF904B
:101F10000895DC015996ED91FC915A97309721F084
:101F200081E09581911101C080E008958091950430
:101F3000882399F14091DF015091E0016091E10126
:101F40007091E20128E934E0809196049091970421
:101F50000E943E1E882319F14091910450919204F1
:101F600060919304709194044115510561057105C8
:101F700091F028E934E080919604909197040E94B2
:101F80003E1E882361F010929104109292041092E8
:101F90009304109294041092950481E0089580E0D7
:101FA0000895CF92DF92EF92FF92CF936B017C0165
:101FB000C42F8091DF019091E001A091E101B091E7
:101FC000E2018C159D05AE05BF05D1F00E94960F6C
:101FD000811102C080E01AC028E934E0B701A601EF
:101FE00080919604909197040E94FB1D882391F3A1
:101FF000C092DF01D092E001E092E101F092E201B3
:10200000809195048C2B8093950481E0CF91FF9073
:10201000EF90DF90CF900895CF92DF92EF92FF92F2
:102020006B017C010E94960F8823B1F0E8E9F4E08F
:10203000119286E0E839F807D9F7C092DF01D09213
:10204000E001E092E101F092E2018091950481606B
:102050008093950481E001C080E0FF90EF90DF90D5
:10206000CF9008958F929F92AF92BF92CF92DF92BE
:10207000EF92FF920F931F93CF93DF938C016A012E
:102080007B01E901FC0181859285A385B4850196D8
:10209000A11DB11D84179507A607B70710F480E0AE
:1020A00059C0F801438954896589768987898031C7
:1020B00029F4BB27AF2D9E2D8D2D09C0D701C60158
:1020C00027E0B695A795979587952A95D1F74C0166
:1020D0005D01840E951EA61EB71EC501B401809039
:1020E000DF019090E001A090E101B090E20168155D
:1020F00079058A059B0529F4F80187898031A1F4C7
:1021000006C040E00E94D10F8111F6CFC8CFDD2478
:10211000EE24FF24F601EE0FFF1FE856FB4F8081EF
:102120009181A0E0B0E011C0E894C7F8DD24EE246E
:10213000FF24F601EE0FFF1FEE0FFF1FE856FB4FC7
:1021400080819181A281B381BF7088839983AA83A2
:10215000BB8381E0DF91CF911F910F91FF90EF90B2
:10216000DF90CF90BF90AF909F908F9008954F9247
:102170005F926F927F92AF92BF92CF92DF92EF9277
:10218000FF920F931F93CF93DF9300D000D0CDB772
:10219000DEB78C0149835A836B837C835901C12C40
:1021A000D12C7601412C42E0542E612C712C4981B6
:1021B0005A816B817C819E012F5F3F4FC8010E9435
:1021C0003210882359F1D301C201F801058404C0FB
:1021D000880F991FAA1FBB1F0A94D2F7C80ED91ED9
:1021E000EA1EFB1E49815A816B817C81878980317F
:1021F00029F488EF9FEFA0E0B0E004C088EF9FEFE4
:10220000AFEFBFE0481759076A077B0780F2F50177
:10221000C082D182E282F38281E001C080E00F902F
:102220000F900F900F90DF91CF911F910F91FF9022
:10223000EF90DF90CF90BF90AF907F906F905F90C6
:102240004F9008954F925F926F927F928F929F92DC
:10225000AF92BF92CF92DF92EF92FF920F931F93B4
:10226000CF93DF93EC016A017B01280139014230F1
:1022700051056105710508F474C089859A85AB859F
:10228000BC850196A11DB11D84179507A607B70748
:1022900008F467C08B889C88AD88BE888F898031A0
:1022A00029F4BB27A72F962F852F09C0DB01CA0170
:1022B00077E0B695A795979587957A95D1F7880E8B
:1022C000991EAA1EBB1E8091DF019091E001A09192
:1022D000E101B091E20188169906AA06BB0621F435
:1022E0008F898031A1F408C040E0C501B4010E948B
:1022F000D10F8111F5CF35C0DD24EE24FF24F60186
:10230000EE0FFF1FE856FB4F5182408210C0E89449
:10231000C7F8DD24EE24FF24F601EE0FFF1FEE0FB9
:10232000FF1FE856FB4F4082518262827382809188
:1023300095048160809395048A89823080F08D8134
:102340009E81AF81B885880D991DAA1DBB1D809304
:10235000910490939204A0939304B093940481E029
:1023600001C080E0DF91CF911F910F91FF90EF901E
:10237000DF90CF90BF90AF909F908F907F906F90A5
:102380005F904F9008952F923F924F925F926F927D
:102390007F929F92AF92BF92CF92DF92EF92FF9285
:1023A0000F931F93CF93DF93CDB7DEB760970FB630
:1023B000F894DEBF0FBECDBF5C014D875E876F878F
:1023C000788B1901D9014D905D906D907C904114EE
:1023D00051046104710431F0BFEF4B1A5B0A6B0AC0
:1023E0007B0A10C0FC014080518062807380992478
:1023F00093942D853E854F855889213031054105BF
:10240000510509F0912CD50119968D919D910D9052
:10241000BC91A02D0196A11DB11D89879A87AB871C
:10242000BC87730162011D821E821F821886F5011E
:1024300081859285A385B4852D813E814F81588504
:10244000281739074A075B0708F056C089859A851F
:10245000AB85BC858C159D05AE05BF0550F4F2E03B
:10246000CF2ED12CE12CF12CA2E04A2E512C612C44
:10247000712C9E012F5F3F4FB701A601C5010E943D
:1024800032108823C9F149815A816B817C81D7013F
:10249000C6010196A11DB11D452B462B472B19F0F6
:1024A0002C013D010DC084199509A609B7092D8598
:1024B0003E854F85588982179307A407B50789F091
:1024C0008D819E81AF81B8850196A11DB11D8D833F
:1024D0009E83AF83B8879FEFC91AD90AE90AF90A20
:1024E000A6CF0FEF1FEF2FEF3FE0A601B701C50109
:1024F0000E94221181111BC080E044C0A7019601F7
:1025000021503109410951092D833E834F8358875A
:10251000970186014D815E816F817885C5010E949A
:102520002211882349F3CD80DE80EF80F8844C149B
:102530005D046E047F0410F3D1014D915D916D91A6
:102540007C91411551056105710541F4F10140820D
:10255000518262827382911009C013C0930182017B
:10256000C5010E9422118111F1CFC6CFFFEF4F1A92
:102570005F0A6F0A7F0AD5014D925D926D927C923F
:10258000139781E060960FB6F894DEBF0FBECDBF03
:10259000DF91CF911F910F91FF90EF90DF90CF903F
:1025A000BF90AF909F907F906F905F904F903F90C3
:1025B0002F900895AF92BF92CF92DF92EF92FF9249
:1025C0000F931F93CF93DF9300D000D0CDB7DEB72A
:1025D0005C016A017B0182E090E0A0E0B0E0F501DF
:1025E00080839183A283B3839E012F5F3F4FB70106
:1025F000A601C5010E943210882311F100E010E00D
:102600009801B701A601C5010E9422118823C1F0DB
:10261000C980DA80EB80FC80F5018789803129F45C
:1026200088EF9FEFA0E0B0E004C088EF9FEFAFEF2E
:10263000BFE0C816D906EA06FB06B0F281E001C089
:1026400080E00F900F900F900F90DF91CF911F912E
:102650000F91FF90EF90DF90CF90BF90AF900895D3
:102660008F929F92AF92BF92CF92DF92EF92FF92A2
:102670001F93CF93DF93EC01142F70939704609313
:102680009604442341F1453010F080E0EFC040E073
:1026900060E070E0CB010E94D10F8823B1F320E10C
:1026A000129FF0011124EA5BF94F80818F7769F75F
:1026B00084859585A685B78584369105A105B105E4
:1026C00020F3C084D184E284F384C114D104E104F2
:1026D000F10421F4DACFC12CD12C760140E0C701FE
:1026E000B6010E94D10F882381F28091A3049091BA
:1026F000A4048115924049F63091A804332329F2AD
:102700008091A6049091A704892B09F4BECF209153
:10271000A504222309F4B9CF3A8B2C831D8630E01F
:1027200041E050E006C0812F8F5F8D87183008F0A0
:10273000ACCF1D85CA01012E02C0880F991F0A94D3
:10274000E2F72817390779F72091AE043091AF04EA
:102750002115310519F040E050E008C02091BC047B
:102760003091BD044091BE045091BF042D833E833F
:102770004F8358878091A6049091A7044601570182
:10278000880E991EA11CB11C8B8A9C8AAD8ABE8AB8
:10279000E091A904F091AA04F98FE88FA091A80410
:1027A000B0E00E946824680D791D8A1D9B1D6A8F08
:1027B0007B8F8C8F9D8FB5E0EE0FFF1FBA95E1F7F1
:1027C000E150FE4FEF2FFF27E695DC01CB018E0F86
:1027D0009F1FA11DB11D8E879F87A88BB98B8090ED
:1027E000AB049090AC048114910419F0A12CB12C8D
:1027F00008C08090B8049090B904A090BA04B0903A
:10280000BB04A7019601281B390B4A0B5B0BDA01AD
:10281000C901880D991DAA1DBB1D04C0B695A795B9
:10282000979587951A95D2F789879A87AB87BC8742
:10283000853F3FE09307A105B10510F48CE014C07B
:10284000853F9F4FA105B10510F480E10DC0809137
:10285000C4049091C504A091C604B091C7048A8FA6
:102860009B8FAC8FBD8F80E28F8B81E0DF91CF910A
:102870001F91FF90EF90DF90CF90BF90AF909F900F
:102880008F900895CF93DF93EC019C012A5F3F4F17
:1028900041E050E060E070E08B8D9C8D0E94C311A0
:1028A0008823A1F04F89588D698D7A8D452B462B51
:1028B000472B71F44E815F81688579854F8B588FE6
:1028C000698F7A8F8C8180688C8302C080E001C020
:1028D00081E0DF91CF910895CF92DF92EF92FF9246
:1028E0001F93CF93DF93EC010E944214811102C029
:1028F00080E04AC0EB8DFC8DCE80DF80E884F984D7
:1029000082E0C81AD108E108F108058404C0CC0CA3
:10291000DD1CEE1CFF1C0A94D2F786859785A089E2
:10292000B189C80ED91EEA1EFB1E148181E0C81AA7
:10293000D108E108F1080BC0C701B601610F711D94
:10294000811D911D0E940C10882391F211501111CC
:10295000F3CFEB8DFC8D80E092E0A0E0B0E0058449
:1029600004C0880F991FAA1FBB1F0A94D2F74B8976
:102970005C896D897E89480F591F6A1F7B1F4B8BAD
:102980005C8B6D8B7E8B81E0DF91CF911F91FF90EF
:10299000EF90DF90CF900895CF93DF93EC01462F17
:1029A0006E857F85888999890E94D10F882341F09F
:1029B0002A8980E2289F9001112428563B4F02C0AB
:1029C00020E030E0C901DF91CF910895FB012BE0B9
:1029D00030E231932150E9F750E0A7E022C04E32B7
:1029E00041F4AA3041F158E0AAE01BC0E41303C04F
:1029F00022C026E531E0F9012F5F3F4FE491E1115C
:102A0000F5CFA517C0F04132B0F04F37A0F4FB016D
:102A1000E50FF11D242F21562A3108F4405240833E
:102A20005F5FFC014191CF014111D9CF81E0FB01F2
:102A30009081903209F480E008950F931F93CF9313
:102A4000DF93EC018B018D81882311F080E040C081
:102A5000FB0187898031B1F482E08D831F8A188E53
:102A6000198E1A8E408D518D60E070E085E0440F24
:102A7000551F661F771F8A95D1F74B8B5C8B6D8B2B
:102A80007E8B15C0803211F783E08D83FB01428D70
:102A9000538D648D758D4F8B588F698F7A8F9E0102
:102AA0002D5E3F4FC8010E94B710882379F21C8F1A
:102AB0000B8F81E08C831E821F82188619861A86EE
:102AC0001B861C861D861E861F86188A198A1A8AEE
:102AD000DF91CF911F910F9108952F923F924F92C6
:102AE0005F926F927F928F929F92AF92BF92CF929E
:102AF000DF92EF92FF920F931F93CF93DF93EC013E
:102B0000FB014A018D81811103C02FEF3FEFE3C02C
:102B10008C8180FFFACFB3C04A01881A990A240138
:102B20006F011E0126E0220E311CA3C04A855B8581
:102B30006C857D85DB01CA019170AA27BB275C01EA
:102B4000ED818A019B01F9E0369527951795079548
:102B5000FA95D1F78B8D9C8DE23051F4FC01628D9A
:102B6000738D848D958D600F711F821F931F3EC0E2
:102B7000FC0174807A947022A114B104C9F471101C
:102B800017C0452B462B472B49F48F89988DA98D6B
:102B9000BA8D8E839F83A887B9870AC04E815F81D3
:102BA0006885798591010E943210882309F4ADCFA0
:102BB000EB8DFC8D6E817F818885998562507109CE
:102BC00081099109058404C0660F771F881F991F2A
:102BD0000A94D2F70685178520893189600F711F05
:102BE000821F931F670D711D811D911D20E032E032
:102BF0002A193B0932012415350508F439012C81C5
:102C000026FD05C06114F2E07F0609F05EC0009168
:102C1000DF011091E0012091E1013091E2016017A4
:102C200071078207930709F042C04FC0C60CD71C3A
:102C300012C0C50188569B4F9C01260D371DFC0113
:102C4000D60102C041914D93E217F307D9F7E81B73
:102C5000F90BCE0EDF1E8A859B85AC85BD85860D62
:102C6000971DA11DB11D8A879B87AC87BD8746181C
:102C700057084114510409F059CF94012CC04B89D5
:102C80005C896D897E898A859B85AC85BD8524019B
:102C9000612C712C8A019B01081B190B2A0B3B0B21
:102CA000041515052605370508F436CF38CF76010B
:102CB00083019501AB01BC0180919604909197042A
:102CC0000E94691D8111B2CF20CF40E00E94D10F38
:102CD0008111AFCF1ACFC901DF91CF911F910F9111
:102CE000FF90EF90DF90CF90BF90AF909F908F902C
:102CF0007F906F905F904F903F902F900895CF926C
:102D0000DF92EF92FF920F931F93CF93DF931F9267
:102D1000CDB7DEB78C01FC018581823018F420E04C
:102D200030E037C0F801C284D384E484F584B5E090
:102D3000F694E794D794C794BA95D1F7FFE0CF22E1
:102D4000DD24EE24FF2441E050E0BE016F5F7F4FA1
:102D5000C8010E946D15019719F4898190E002C0A5
:102D60008FEF9FEF0196D9F2F80142855385648574
:102D70007585415E5F4F6F4F7F4F428753876487F2
:102D800075879601A5E0220F331FAA95E1F7285613
:102D90003B4FC9010F90DF91CF911F910F91FF9091
:102DA000EF90DF90CF9008958F929F92AF92BF9255
:102DB000CF92DF92EF92FF920F931F93CF93DF9307
:102DC000EC014A015B012D81222309F475C08B8936
:102DD0009C89AD89BE8984179507A607B70708F4B3
:102DE0006BC06CC081149104A104B10449F41E822B
:102DF0001F82188619861A861B861C861D865AC055
:102E00004A855B856C857D85EB8DFC8D258530E065
:102E1000275F3F4FDB01CA010197A109B109022ECB
:102E200004C0B695A795979587950A94D2F7CC24B8
:102E3000CA94DC2C7601C80CD91CEA1CFB1C04C00B
:102E4000F694E794D794C7942A95D2F7C816D90672
:102E5000EA06FB0620F0452B462B472B49F48F89C9
:102E6000988DA98DBA8D8E839F83A887B98716C048
:102E7000C81AD90AEA0AFB0A11C04E815F81688527
:102E8000798598018B8D9C8D0E94321091E0C91A32
:102E9000D108E108F108811104C00EC08E010A5F5B
:102EA0001F4FC114D104E104F10439F78A869B86CF
:102EB000AC86BD8681E006C080E004C0223009F007
:102EC00091CFF4CFDF91CF911F910F91FF90EF90B1
:102ED000DF90CF90BF90AF909F908F9008950F9309
:102EE0001F93CF93DF93EC018D818823C9F18C81EF
:102EF00087FF30C061E0CE010E94CC148C010097A6
:102F000079F18D81823048F44B895C896D897E89A5
:102F1000F801448F558F668F778F4F89588D698D53
:102F20007A8DF801538F428F758B648BE0919806F0
:102F3000F0919906309759F0B8016A5E7F4FC80149
:102F400048960995F801808D918D938B828B8C81A9
:102F50008F778C83DF91CF911F910F910C94960FF7
:102F600080E0DF91CF911F910F910895CF93DF9370
:102F7000EC010E946F17882319F01D8281E001C0C7
:102F800080E0DF91CF9108954F925F926F927F9290
:102F9000AF92BF92CF92DF92EF92FF920F931F9367
:102FA000CF93DF9300D000D0CDB7DEB75C016A01CC
:102FB0007B01FC018581813009F083C0848181FF20
:102FC00080C081C0892B8A2B8B2B09F478C0F50136
:102FD0004284538464847584B701A601C5010E94AC
:102FE000D416811101C06DC0F501838D948DC1147B
:102FF000D104E104F10479F44789508D618D728D1B
:103000000E94DA12882309F45CC0F501178A108E39
:10301000118E128E3AC0F501468157816085718507
:103020009E012F5F3F4F0E943210882309F449C050
:1030300049815A816B817C81F501838D948DFC01DE
:103040002789203129F408EF1FEF20E030E004C089
:1030500008EF1FEF2FEF3FE040175107620773079C
:10306000A0F40E94DA12882361F1F50146815781AC
:10307000608571850FEF1FEF2FEF3FE0838D948DFB
:103080000E942211811101C01CC0F501C38AD48A9B
:10309000E58AF68A848180688483C5010E946F175F
:1030A000882379F0B701A6014C145D046E047F04F7
:1030B00010F4B301A201C5010E94D41610C081E032
:1030C0000EC080E00CC0F50183899489A589B6897A
:1030D00084179507A607B70708F074CFF2CF0F90B3
:1030E0000F900F900F90DF91CF911F910F91FF9054
:1030F000EF90DF90CF90BF90AF907F906F905F90F8
:103100004F900895FF920F931F93CF93DF93EC019D
:10311000F42E80E2689FF0011124E856FB4F83856E
:10312000817129F0842F827411F080E053C06A8B82
:103130008091DF019091E001A091E101B091E20165
:103140008E879F87A88BB98B4489558960E070E092
:10315000BA0155274427828D938DA0E0B0E0482B1B
:10316000592B6A2B7B2B4F8B588F698F7A8F8385D6
:10317000887151F4048D158D268D378D0B8B1C8B2A
:103180002D8B3E8B81E00CC0803179F69E012D5E47
:103190003F4F8B8D9C8D0E94B710882331F284E0C5
:1031A0008D838F2D8F708C831E821F8218861986C7
:1031B0001A861B861C861D86F6FE0BC040E050E07A
:1031C000BA01CE01DF91CF911F910F91FF900C9426
:1031D000C41781E0DF91CF911F910F91FF90089567
:1031E0005F926F927F928F929F92AF92BF92CF9297
:1031F000DF92EF92FF920F931F93CF93DF93CDB7A0
:10320000DEB72B970FB6F894DEBF0FBECDBF8C0193
:103210005B01CA01922EF80125812111C7C0EE245D
:10322000E394F12CEC0EFD1EB7010E94E61481110F
:1032300001C0BCC0F501838D948DF801948F838FFC
:10324000F50116821782108611861286138614865F
:103250001586812C7E2C6F2C41C035E0F694E794C6
:10326000D794C7943A95D1F7FFE0CF22DD24EE241E
:10327000FF245C2CC5010E947F16009709F496C0BC
:10328000FC012081222311F0253EB9F481100EC0EB
:10329000F801528A4091DF015091E0016091E10113
:1032A0007091E20146875787608B718BFC018081AA
:1032B00088248394882309F111C04BE050E0BC01BD
:1032C000872D962D0E946426009741F4892D8073E6
:1032D000803309F46BC0492D6C2D64C0F501C284A4
:1032E000D384E484F58483899489A589B689C81632
:1032F000D906EA06FB0608F4B0CF892D8271823127
:1033000009F054C0882041F061E0C8010E94CC144B
:103310007C01009791F44AC0F5018581823009F45F
:1033200045C0C5010E946C14882309F43FC0F80110
:10333000128A28E9E22E24E0F22E80E2F7011192AF
:103340008A95E9F78BE0FE013196D70101900D9245
:103350008A95E1F7E0919806F0919906309739F057
:10336000B701625F7F4FC7014096099509C081E2AE
:1033700098E2F701918B808B80E098E097878687B1
:10338000F70180899189938B828B918F808F8685BD
:103390009785978B868B0E94960F882339F0492D4D
:1033A000F8016289C8010E94821801C080E02B9652
:1033B0000FB6F894DEBF0FBECDBFDF91CF911F9146
:1033C0000F91FF90EF90DF90CF90BF90AF909F90C4
:1033D0008F907F906F905F9008952F923F924F92C1
:1033E0005F926F927F928F929F92AF92BF92CF9295
:1033F000DF92EF92FF920F931F93CF93DF9300D052
:1034000000D01F92CDB7DEB78C01962E872E6A01B1
:10341000DC0115968C91813009F05FC1F80184813F
:1034200081FF5BC164C1D80153964D915D916D914F
:103430007C9156971A968D919D910D90BC91A02DDF
:1034400084179507A607B70721F45601E92CF82C35
:103450000CC1C8010E94D416882309F43EC1F5CFDF
:10346000F801838D948DDC011496BC91B150B301A9
:10347000A201A9E07695679557954795AA95D1F74A
:10348000B423BD83B301A2015170662777273A01A7
:10349000B11141C041155105F1F546815781608553
:1034A0007185411551056105710549F48789908D34
:1034B000A18DB28D0097A105B10541F521C09E01F6
:1034C0002F5F3F4F0E943210811101C00DC18981D1
:1034D0009A81AB81BC81F801238D348DF901278954
:1034E000203129F448EF5FEF60E070E004C048EF5E
:1034F0005FEF6FEF7FE084179507A607B70730F0FF
:10350000C8010E944214811106C0E7C0F8018683F9
:103510009783A087B18780E092E0861997094501DB
:103520008A159B0508F44C01D8015B96ED91FC913E
:103530005C9716962D903D904D905C901997B2E057
:103540002B1A310841085108058404C0220C331C91
:10355000441C551C0A94D2F786859785A089B189A9
:10356000280E391E4A1E5B1EED812E0E311C411C99
:10357000511C8114F2E09F0639F58091DF01909192
:10358000E001A091E101B091E20182159305A4054B
:10359000B50559F48FEF9FEFDC018093DF01909325
:1035A000E001A093E101B093E2019701B201A10112
:1035B00080919604909197040E943E1E882309F4FE
:1035C0008CC09EEFF91A42C06114710429F5D8012C
:1035D0001A964D915D916D917C911D9753968D91A9
:1035E0009D910D90BC91A02D481759076A077B0744
:1035F00098F00E94960F882309F46FC02092DF0193
:103600003092E0014092E1015092E20180919504F4
:1036100081608093950408C041E0C201B1010E941D
:10362000D10F882309F459C0C30188569B4F9C01D0
:10363000280D391DD701FC0102C04D914193E217BD
:10364000F307D9F7E81BF90BEE0EFF1EA818B9080F
:10365000F80182859385A485B585880D991DA11DE6
:10366000B11D82879387A487B587D8011A964D909C
:103670005D906D907C901D97A114B10409F0F0CE7F
:1036800053968D919D910D90BC91A02D841595051B
:10369000A605B70548F4F801438A548A658A768AF4
:1036A00084818068848310C08091980690919906E7
:1036B000892B51F0C114D10439F0D80114968C91A2
:1036C0001497806814968C93F801848183FF12C04C
:1036D000C8010E946F1781110DC081E090E0D801F0
:1036E00013969C938E931297C12CD12C03C082FD0C
:1036F0009ACEABCEC6010F900F900F900F900F9007
:10370000DF91CF911F910F91FF90EF90DF90CF90BD
:10371000BF90AF909F908F907F906F905F904F90F1
:103720003F902F900895CF93DF931F92CDB7DEB7D0
:10373000698341E050E0BE016F5F7F4F0E94ED1949
:103740000F90DF91CF9108958EBD0DB407FEFDCF90
:1037500008958FEF0E94A41B8EB5089561E0FC01CF
:1037600084810C94F02060E0FC0184810C94F020B2
:10377000CF93DF93EC018E818823C9F08FEF8EBD4C
:103780004FEF04C00DB407FEFDCF4EBD8F8198856D
:103790009C012F5F3F4F38872F838130924090F3F9
:1037A0000DB407FEFDCFCE010E94AE1B1E82DF913D
:1037B000CF910895673028F026E1FC01258380E051
:1037C00008958DB560FD02C0663011F48E7F01C092
:1037D00081608DBD8CB58C7F8CBD9CB562FF02C0B5
:1037E00082E001C080E066956170692B682B6CBD3A
:1037F00081E008950F931F93CF93DF93EB010E9415
:10380000E71F8B010E94A91B8F3F49F00E94E71F11
:10381000601B710B6C177D07A8F380E001C081E08D
:10382000DF91CF911F910F910895CF92DF92FF9278
:103830000F931F93CF93DF9300D000D0CDB7DEB7A7
:103840006C01F62E29833A834B835C830E94B81B5C
:10385000C6010E94B31B6CE271E0C6010E94FA1B14
:103860008F2D80640E94A41B08E110E05C814B81D5
:103870003A812981DA01C901002E04C0B695A795C5
:10388000979587950A94D2F729833A834B835C8373
:103890000E94A41B0850110929813A814B815C8147
:1038A000083F8FEF180731F7FF2029F0E8E0FE16F8
:1038B00021F08FEF03C085E901C087E80E94A41BB7
:1038C00010E00E94A91BF601828787FF04C01F3FFA
:1038D00011F01F5FF6CF0F900F900F900F90DF91B8
:1038E000CF911F910F91FF90DF90CF900895BF92DD
:1038F000CF92DF92EF92FF920F931F93CF93DF93BC
:10390000EC01B62E1B8619861E821D824C830E94F6
:10391000E71F8B0161E08C810E94B820CE010E94DC
:10392000AE1B60E08CE00E94B82061E08BE00E945A
:10393000B82061E08DE00E94B82061E08AE00E943A
:10394000B82061E08AE00E94F02083E58CBD8DB54F
:103950008E7F8DBD2AE0F22E8FEF0E94A41BFA9479
:10396000D9F7CE010E94B31B09C00E94E71F601B5C
:10397000710B613D774010F081E058C020E030E0ED
:10398000A90160E0CE010E94151CF82E8A8781E013
:10399000F812EBCF2AEA31E040E050E068E0CE01D7
:1039A0000E94151C82FF02C0FB860DC094E0F92E18
:1039B0000E94A91B8A87FA94D9F78A3A11F082E00B
:1039C00035C082E08B878B85823031F4C12CD12CBD
:1039D000E12C80E4F82E0DC0C12CD12C760109C059
:1039E0000E94E71F601B710B613D774010F088E07B
:1039F0001DC020E030E0A90167E3CE010E94151C44
:103A0000A701960169E2CE010E94151C8A878111E7
:103A1000E7CF8B858230C9F420E030E0A9016AE36A
:103A2000CE010E94151C882319F086E08D831DC0ED
:103A30000E94A91B807C803C11F483E08B870E944C
:103A4000A91B0E94A91B0E94A91BCE010E94AE1BAC
:103A50006B2DCE01DF91CF911F910F91FF90EF90D1
:103A6000DF90CF90BF900C94DA1BCE010E94AE1B6A
:103A700080E0DF91CF911F910F91FF90EF90DF9049
:103A8000CF90BF9008950F931F93CF93DF93EC01D6
:103A90000E94E71F8B0109C00E94E71F601B710B8A
:103AA0006D32714010F08FE008C00E94A91B8A8718
:103AB0008F3F91F38E3F39F08DE08D83CE010E94D0
:103AC000AE1B80E001C081E0DF91CF911F910F918B
:103AD0000895CF92DF92EF92FF920F931F93CF93AF
:103AE000DF93EC0169010115110509F475C0C801E6
:103AF000820F931F8130924008F070C08E8188231E
:103B000071F088819981AA81BB81481759076A079A
:103B10007B0729F48F819885C816D90618F5488344
:103B200059836A837B838B85833039F0B9E0440FF6
:103B3000551F661F771FBA95D1F79A01AB0161E156
:103B4000CE010E94151C882319F083E08D8346C0A6
:103B5000CE010E94431D882309F440C018861F82AD
:103B600081E08E838FEF8EBD2FEF09C00DB407FE6D
:103B7000FDCF2EBD8F819885019698878F838F8189
:103B800098858C159D0590F3C8010197F7014FEFBB
:103B900006C00DB407FEFDCF2EB521934EBD9F018B
:103BA0002E193F0928173907A0F30DB407FEFDCFE2
:103BB0002EB5F701E80FF91F20838F819885800FBC
:103BC000911F98878F832985222319F081159240B0
:103BD00018F0CE010E94B81B81E004C0CE010E9403
:103BE000AE1B80E0DF91CF911F910F91FF90EF907E
:103BF000DF90CF900895EF92FF920F931F9379017A
:103C000000E012E020E030E00E94691D1F910F915A
:103C1000FF90EF900895CF93DF93EC016EBD20E00D
:103C200030E00DB407FEFDCFFA01E20FF31F8081F3
:103C30008EBD0DB407FEFDCF81818EBD2E5F3F4F3F
:103C4000211582E0380769F70DB407FEFDCF8FEF2D
:103C50000E94A41B8FEF0E94A41B0E94A91B8A87AD
:103C60008F71853039F081E18D83CE010E94AE1BCA
:103C700080E001C081E0DF91CF9108950F931F9301
:103C8000CF93DF93EC018901411551056105710561
:103C900011F482E138C08B85833039F089E0440F1C
:103CA000551F661F771F8A95D1F79A01AB0168E10E
:103CB000CE010E94151C882311F084E024C0A801C5
:103CC0006EEFCE010E940B1E8823B9F068E572E00A
:103CD000CE010E94FA1B811102C085E114C020E0D0
:103CE00030E0A9016DE0CE010E94151C81110AC0CF
:103CF0000E94A91B811106C008C0CE010E94AE1B04
:103D000080E007C084E18D83F8CFCE010E94AE1B16
:103D100081E0DF91CF911F910F9108958230E8F4F7
:103D2000E82FF0E0EE0FFF1FE656F94F7183608336
:103D3000813041F0809169008C7F842B80936900F1
:103D4000E89A089580916900440F551F440F551F4C
:103D5000837F842B80936900E99A08951F920F92C4
:103D60000FB60F9211242F933F934F935F936F934E
:103D70007F938F939F93AF93BF93EF93FF93809124
:103D80009A0690919B06892B29F0E0919A06F09172
:103D90009B060995FF91EF91BF91AF919F918F91F4
:103DA0007F916F915F914F913F912F910F900FBE37
:103DB0000F901F9018951F920F920FB60F9211241B
:103DC0002F933F934F935F936F937F938F939F9323
:103DD000AF93BF93EF93FF9380919C0690919D06C4
:103DE000892B29F0E0919C06F0919D060995FF91A1
:103DF000EF91BF91AF919F918F917F916F915F9163
:103E00004F913F912F910F900FBE0F901F901895DB
:103E10008F929F92AF92BF92CF92DF92EF92FF92DA
:103E20000F931F93CF93DF9390E0FC01E658FE4F72
:103E3000D491FC01E257FE4F7491611102C0C0E0C1
:103E400001C0CD2FDA01C901BF70672F70E0660F86
:103E5000771F6E557E4F812C912C5401FB010591EB
:103E6000149110C0C12CD12C7601C394C80CD91C5C
:103E7000EA1CFB1C88169906AA06BB0609F44BC06F
:103E800046015701F801E081ED23EC1759F310C00A
:103E9000C12CD12C7601C394C80CD91CEA1CFB1C84
:103EA00088169906AA06BB06B1F14601570103C060
:103EB000FB0105911491F801E081ED23EC13E8CFAB
:103EC00088199909AA09BB0920E030E0A901FB0182
:103ED0006591749109C0281739074A075B07D9F023
:103EE0002F5F3F4F4F4F5F4FFB01E081ED23EC17FA
:103EF00091F3A5E1B0E00E9468248B019C01005F72
:103F00001F4F2F4F3F4F84E0369527951795079504
:103F10008A95D1F703C000E010E09801B801C9010B
:103F2000DF91CF911F910F91FF90EF90DF90CF9095
:103F3000BF90AF909F908F9008951F920F920FB6F1
:103F40000F9211242F933F938F939F93AF93BF931F
:103F500080919E0690919F06A091A006B091A10627
:103F60003091A606232F2D5F2D3720F40196A11D39
:103F7000B11D05C0232F2A570296A11DB11D209304
:103F8000A60680939E0690939F06A093A006B093EA
:103F9000A1068091A2069091A306A091A406B091DB
:103FA000A5060196A11DB11D8093A2069093A306BC
:103FB000A093A406B093A506BF91AF919F918F9156
:103FC0003F912F910F900FBE0F901F9018950F9358
:103FD0001F938FB7F89400919E0610919F06209131
:103FE000A0063091A1068FBFB801C9011F910F91A2
:103FF00008950F931F939FB7F8940091A206109114
:10400000A3062091A4063091A50686B5A89B06C0FC
:104010008F3F21F00F5F1F4F2F4F3F4F9FBF322F1A
:10402000212F102F0027080F111D211D311D42E0E7
:10403000000F111F221F331F4A95D1F7B801C90184
:104040001F910F910895CF92DF92EF92FF92CF933D
:10405000DF936B017C010E94F91FEB010EC00E94EF
:10406000F91F6C1B7D0B683E734038F081E0C81A65
:10407000D108E108F108C851DC4FC114D104E104B2
:10408000F10469F7DF91CF91FF90EF90DF90CF902F
:104090000895019739F0880F991F880F991F02978B
:1040A0000197F1F70895789484B5826084BD84B552
:1040B000816084BD85B5826085BD85B5816085BD23
:1040C000EEE6F0E0808181608083E1E8F0E010823C
:1040D000808182608083808181608083E0E8F0E07D
:1040E000808181608083E1EBF0E080818460808367
:1040F000E0EBF0E0808181608083EAE7F0E080819E
:1041000084608083808182608083808181608083FD
:104110008081806880831092C1000895833069F0A7
:1041200028F48130A1F0823011F514C08630B1F04E
:104130008730C1F08430D9F404C0809180008F773B
:1041400003C0809180008F7D80938000089584B5A6
:104150008F7702C084B58F7D84BD08958091B000B3
:104160008F7703C08091B0008F7D8093B000089559
:10417000CF93DF9390E0FC01E658FE4F4491FC01A1
:10418000E257FE4F8491882341F190E0880F991FF8
:10419000FC01EA54FE4F25913491D90184559E4F7C
:1041A000FC0185919491C82FD92F9FB7F8948C91D9
:1041B000611106C0409584238C938881842308C0B4
:1041C000623041F4242F209582238C938881842BA4
:1041D000888302C0842B8C939FBFDF91CF91089579
:1041E0000F931F93CF93DF931F92CDB7DEB7282F86
:1041F00030E0F901EA59FE4F8491F901E658FE4F8B
:104200001491F901E257FE4F04910023D1F0882365
:1042100021F069830E948E206981E02FF0E0EE0F8B
:10422000FF1FE455FE4F85919491DC019FB7F894F0
:104230008C91611103C01095812301C0812B8C9357
:104240009FBF0F90DF91CF911F910F910895FC01B7
:1042500084859585FC01E05CFF4F20813181FC0164
:10426000EE5BFF4F80819181281B390B2F73332721
:10427000C9010895FC0184859585FC01E05CFF4F30
:1042800040815181FC01EE5BFF4F2081318142175B
:10429000530741F00190F081E02DE80FF91F2081D4
:1042A00030E002C02FEF3FEFC9010895FC01848583
:1042B0009585FC01E05CFF4F40815181FC01EE5B84
:1042C000FF4F208131814217530781F0A081B181D6
:1042D000A80FB91F8C91208131812F5F3F4F2F7321
:1042E000332731832083282F30E002C02FEF3FEFA8
:1042F000C9010895FC0186859785FC01E05CFF4FAC
:10430000DC01AE5BBF4F408151812D913C911197F3
:1043100042175307C1F70895CF93DF93FC018685B9
:104320009785DC01A05CBF4F2D913C9111972F5FC9
:104330003F4F2F733327EC01CE5BDF4F488159810C
:1043400024173507D9F30D90BC91A02DA80FB91FE4
:104350006C93A685B785A05CBF4F11963C932E93B6
:10436000A689B7892C9181E090E0058C02C0880F66
:10437000991F0A94E2F7282B2C9381E090E0DF91BB
:10438000CF91089508951F920F920FB60F921124A6
:104390002F933F934F938F939F93EF93FF9340916E
:1043A000C60080914A0790914B0701968F73992719
:1043B00020914C0730914D078217930759F0E091F7
:1043C0004A07F0914B07E65FF84F408390934B0705
:1043D00080934A07FF91EF919F918F914F913F9169
:1043E0002F910F900FBE0F901F90189587EA96E0BF
:1043F0000E942721892B11F00C94C22108951F924D
:104400000F920FB60F9211242F933F938F939F9388
:10441000EF93FF93209106073091070780910807DB
:10442000909109072817390731F48091C1008F7DD9
:104430008093C10014C0E0910807F0910907EA5386
:10444000F94F2081809108079091090701968F7399
:10445000992790930907809308072093C600FF913E
:10446000EF919F918F913F912F910F900FBE0F90E1
:104470001F901895CF92DF92EF92FF92CF93DF9328
:10448000EC016A017B01411581EE58076105710558
:10449000F9F0EC89FD8981E090E00E8C02C0880F74
:1044A000991F0A94E2F7808360E079E08DE390E061
:1044B000A70196010E94AB242150310941095109FD
:1044C0005695479537952795211580E1380798F03F
:1044D000EC89FD89108260E874E88EE190E0A70124
:1044E00096010E94AB24215031094109510956958A
:1044F000479537952795E889F9893083EA89FB89BB
:104500002083EE89FF89408181E090E09C010A8C44
:1045100002C0220F331F0A94E2F7422B4083EE8938
:10452000FF8940819C010B8C02C0220F331F0A942B
:10453000E2F7422B4083EE89FF8940819C010C8C7D
:1045400002C0220F331F0A94E2F7422B4083EE8908
:10455000FF8920810D8C02C0880F991F0A94E2F711
:10456000809582238083DF91CF91FF90EF90DF9041
:10457000CF9008951092AA061092A90688EE93E0B3
:10458000A0E0B0E08093AB069093AC06A093AD069C
:10459000B093AE068FE493E09093A8068093A706AD
:1045A0008AE097E09093B4068093B30686EC96E099
:1045B0009093B6068093B50685EC90E09093B8068C
:1045C0008093B70684EC90E09093BA068093B90686
:1045D00080EC90E09093BC068093BB0681EC90E069
:1045E0009093BE068093BD0686EC90E09093C00643
:1045F0008093BF0684E08093C10683E08093C20667
:1046000087E08093C30685E08093C40681E08093B1
:10461000C50608950E9453200E941801C6EFD1E2FA
:104620000E9464032097E1F30E94F621F9CFCF9214
:10463000DF92EF92FF920F931F93CF93DF936C0162
:10464000EB017A01E60EF71E00E010E00BC0699165
:10465000D601ED91FC910190F081E02DC601099504
:10466000080F191FCE15DF0591F7C801DF91CF9113
:104670001F910F91FF90EF90DF90CF900895DB0195
:104680000D900020E9F7AD0141505109461B570B31
:10469000DC01ED91FC910280F381E02D09940C94F2
:1046A0003F23DC01ED91FC910190F081E02D099414
:1046B0000F931F93CF93DF93EC016DE00E94512382
:1046C0008C016AE0CE010E9451239C01200F311F12
:1046D000C901DF91CF911F910F9108950F931F93FF
:1046E000CF93DF93EC010E943F238C01CE010E9407
:1046F00058239801280F391FC901DF91CF911F91CD
:104700000F9108954F925F926F927F929F92AF9216
:10471000BF92CF92DF92EF92FF920F931F93CF93AE
:10472000DF93CDB7DEB7A1970FB6F894DEBF0FBE0B
:10473000CDBF5C016A017B01922E19A281E0821734
:1047400010F08AE0982E8E010F5D1F4F492C512CDE
:10475000612C712CC701B601A30192010E94AB2408
:104760008C2D929E80191124015011098A3014F465
:10477000805D01C0895CF801808369017A01C11400
:10478000D104E104F10431F7B801C5010E943F23CF
:10479000A1960FB6F894DEBF0FBECDBFDF91CF91CB
:1047A0001F910F91FF90EF90DF90CF90BF90AF904F
:1047B0009F907F906F905F904F90089521153105E5
:1047C00041F4DC01ED91FC910190F081E02D642F2A
:1047D00009940C9482230F931F93CF93DF93EC01E2
:1047E0009A01AB0160E070E00E94DE238C01CE01F3
:1047F0000E9458239801280F391FC901DF91CF91DA
:104800001F910F910895CF92DF92EF92FF920F9335
:104810001F93CF93DF93EC016A017B0121153105D2
:1048200079F4E881F9810190F081E02D642FDF9126
:10483000CF911F910F91FF90EF90DF90CF9009944F
:104840002A30310519F477FD0EC02AE0B701A60120
:10485000CE01DF91CF911F910F91FF90EF90DF90EC
:10486000CF900C9482236DE20E9451238C01442747
:104870005527BA014C195D096E097F092AE0CE015E
:104880000E948223080F191FC801DF91CF911F9149
:104890000F91FF90EF90DF90CF9008950F931F93AB
:1048A000CF93DF93EC019A01AB01662757FD60952A
:1048B000762F0E9403248C01CE010E945823980178
:1048C000280F391FC901DF91CF911F910F910895D2
:1048D0000E94EF24A59F900DB49F900DA49F800D82
:1048E000911D11240895B7FF0C9468240E94682438
:1048F000821B930B0895DB018F939F930E94682482
:10490000BF91AF91A29F800D911DA39F900DB29F6B
:10491000900D11240895991B79E004C0991F9617F2
:1049200008F0961B881F7A95C9F78095089597FB24
:10493000072E16F4009407D077FD09D00E94FB24BF
:1049400007FC05D03EF4909581959F4F0895709592
:1049500061957F4F0895A1E21A2EAA1BBB1BFD0192
:104960000DC0AA1FBB1FEE1FFF1FA217B307E4074E
:10497000F50720F0A21BB30BE40BF50B661F771FA6
:10498000881F991F1A9469F7609570958095909586
:104990009B01AC01BD01CF010895052E97FB16F4D4
:1049A000009407D057FD0DD00E94AB2407FC09D01E
:1049B0007EF490958095709561957F4F8F4F9F4FB6
:1049C000089550954095309521953F4F4F4F5F4F3B
:1049D0000895EE0FFF1F0590F491E02D0994A29F1A
:1049E000B001B39FC001A39F01D0B29F700D811D84
:1049F0001124911D0895AA1BBB1B51E107C0AA1FDA
:104A0000BB1FA617B70710F0A61BB70B881F991F6F
:104A10005A95A9F780959095BC01CD0108950F9303
:104A20001F93CF93DF938230910510F482E090E0E2
:104A3000E0915007F091510720E030E0C0E0D0E075
:104A400023C04081518148175907A8F048175907DA
:104A500061F482819381209719F09B838A832EC011
:104A6000909351078093500729C02115310529F0F3
:104A70004217530710F0A90102C0BE01DF010281F5
:104A80001381EF019A01F8013097D9F6211531050C
:104A900009F1281B390B2430310590F412968D91C1
:104AA0009C9113976115710521F0FB01938382831B
:104AB00004C09093510780935007FD01329644C083
:104AC000FD01E20FF31F81939193225031092D9341
:104AD0003C933AC020914E0730914F07232B41F46D
:104AE000209102013091030130934F0720934E072C
:104AF00020910001309101012115310541F42DB7BC
:104B00003EB74091040150910501241B350BE09103
:104B10004E07F0914F07E217F307A0F42E1B3F0B4F
:104B20002817390778F0AC014E5F5F4F241735071F
:104B300048F04E0F5F1F50934F0740934E078193ED
:104B4000919302C0E0E0F0E0CF01DF91CF911F919F
:104B50000F910895EF92FF920F931F93CF93DF93DE
:104B6000009709F48EC0DC01129713961C921E92D6
:104B70001297E0905007F0905107E114F10489F486
:104B80002D913C911197280F391F80914E079091DC
:104B90004F078217930789F5B0934F07A0934E07ED
:104BA00070C0E70120E030E001C0EA01CA17DB076E
:104BB00038F44A815B819E0141155105B1F722C04D
:104BC000AC0142505109FA01D383C28300811181A3
:104BD000BC01600F711F6C177D0761F468817981DA
:104BE000600F711F6E5F7F4F718360836A817B816D
:104BF000738362832115310529F4B0935107A09383
:104C000050073FC0F901B383A283E901499159914B
:104C1000C40FD51FAC17BD0771F4DC019E918E91B6
:104C2000840F951F02969183808312968D919C919B
:104C3000139793838283A0E0B0E002C0D7017C0188
:104C4000F701828193810097C9F7C70102962081FD
:104C50003181820F931F20914E0730914F07281703
:104C6000390779F4109729F41092510710925007E0
:104C700004C013961C921E921297F0924F07E09276
:104C80004E07CDB7DEB7E6E00C946329FC01882718
:104C90009927E89421912032E9F3293010F02E3041
:104CA000C8F32B3241F02D3239F4689404C00E94CD
:104CB0009226820F911D219120532A30C0F31EF4B9
:104CC000909581959F4F0895FB01DC0104C08D9163
:104CD0000190801921F441505040C8F7881B990B6E
:104CE0000895FC018191861721F08823D9F799272F
:104CF00008953197CF010895FB01DC0101900D92D9
:104D00000020E1F70895FB01DC014150504048F0DC
:104D100001900D920020C9F701C01D9241505040F2
:104D2000E0F708957AE0979F902D879F802D910D51
:104D300011240895A0E1B0E0E0EAF6E20C944929DC
:104D40000F89188D86E08C831A8309838FEF9FE784
:104D50009E838D83AE01455E5F4F588B4F87698D73
:104D60007A8DCE0101960E94BE26EF81F885E00F74
:104D7000F11F10826096E4E00C946529ACE0B0E08D
:104D8000E4ECF6E20C943B297C016B018A01FC0106
:104D900017821682838181FFC7C188248394912C56
:104DA0008C0E9D1EF7019381F60193FD859193FF73
:104DB00081916F01882309F4B3C1853239F493FDE1
:104DC000859193FF81916F01853229F4B70190E0BD
:104DD0000E94B128E7CF712C312C20E02032A8F4BA
:104DE0008B3261F028F4803251F0833271F40BC0C1
:104DF0008D3239F0803349F4216028C0226024606C
:104E000025C0286023C0206121C027FD27C0382F7E
:104E100030533A3078F426FF06C0FAE07F9E300D1A
:104E20001124732E13C08AE0389E300D1124332EC6
:104E300020620CC08E3221F426FD72C1206406C0AF
:104E40008C3611F4206802C0883641F4F60193FDD7
:104E5000859193FF81916F018111C0CF982F955457
:104E6000933018F09052933028F40C5F1F4FFFE3FB
:104E7000F9830DC0833631F0833771F0833509F043
:104E80005EC023C0F801808189830E5F1F4F6624B6
:104E90006394712C540115C02801F2E04F0E511C8F
:104EA000F801A080B18026FF03C0672D70E002C02A
:104EB0006FEF7FEFC5012C870E94A6283C0182017D
:104EC0002C856FE7262E222218C02801F2E04F0E13
:104ED000511CF801A080B18026FF03C0672D70E04F
:104EE00002C06FEF7FEFC5012C870E949B283C0119
:104EF0002C8550E8252E222A820123FC1CC006C0E6
:104F0000B70180E290E00E94B1283A94832D90E0AE
:104F100068167906A8F30FC0F50127FC859127FED6
:104F200081915F01B70190E00E94B12831103A945D
:104F3000F1E06F1A71086114710471F7EEC08436E4
:104F400011F0893641F5F80127FF07C060817181B2
:104F5000828193810C5F1F4F08C060817181882717
:104F600077FD8095982F0E5F1F4F4FE6642E6222CB
:104F700097FF09C090958095709561957F4F8F4FF1
:104F80009F4FF0E86F2A2AE030E0A4010E94DD285C
:104F9000A82EA81844C0853731F43FEEB32EB222B4
:104FA0002AE030E024C099EFB92EB2228F36B9F052
:104FB00020F4883509F0B4C00DC0803721F088375F
:104FC00009F0AEC002C020E1B22AB4FE0BC084E0FA
:104FD000B82A08C024FF09C0E6E0BE2A06C028E0BF
:104FE00030E005C020E130E002C020E132E0F8010D
:104FF000B7FE07C060817181828193810C5F1F4F72
:1050000006C06081718180E090E00E5F1F4FA401B7
:105010000E94DD28A82EA8188FE7682E6B2066FE58
:105020000BC0362D3E7FA71450F464FE0AC062FC0C
:1050300008C0362D3E7E05C0BA2C362D03C0BA2CD2
:1050400001C0B72C34FF0DC0FE01EA0DF11D8081B7
:10505000803311F4397E09C032FF06C0B394B39493
:1050600004C0832F867809F0B39433FD14C030FF59
:105070000FC07A2CB31460F4730C7B18B32C08C0E7
:10508000B70180E290E03C870E94B128B3943C8550
:10509000B314B0F304C0B31410F43B1801C0312CA6
:1050A00034FF12C0B70180E390E03C870E94B12832
:1050B0003C8532FF1EC031FF03C088E590E002C08E
:1050C00088E790E0B7010CC0832F867891F031FD1E
:1050D00002C080E201C08BE237FD8DE2B70190E0B3
:1050E0000E94B12806C0B70180E390E00E94B12879
:1050F0007A94A714C0F3AA94F401EA0DF11DB70144
:10510000808190E00E94B128A110F5CF06C0B701C0
:1051100080E290E00E94B1283A943110F8CF42CE5C
:10512000F7012681378102C02FEF3FEFC9012C968E
:10513000E2E10C945729FC01059061507040011088
:10514000D8F7809590958E0F9F1F0895FC016150B0
:10515000704001900110D8F7809590958E0F9F1F99
:1051600008950F931F93CF93DF938C01EB018B81F5
:1051700081FD03C00FEF1FEF1AC082FF0DC02E810B
:105180003F818C819D812817390764F4E881F9817A
:105190000193F983E88306C0E885F985802F099596
:1051A000892B41F78E819F8101969F838E83C80151
:1051B000DF91CF911F910F910895FA01AA2728300E
:1051C00051F1203181F1E8946F936E7F6E5F7F4FD4
:1051D0008F4F9F4FAF4FB1E03ED0B4E03CD0670F50
:1051E000781F891F9A1FA11D680F791F8A1F911DA3
:1051F000A11D6A0F711D811D911DA11D20D009F4F3
:1052000068943F912AE0269F11243019305D319334
:10521000DEF6CF010895462F4770405D4193B3E01D
:105220000FD0C9F7F6CF462F4F70405D4A3318F0C4
:10523000495D31FD4052419302D0A9F7EACFB4E075
:10524000A6959795879577956795BA95C9F700972D
:105250006105710508959B01AC010A2E06945795CE
:10526000479537952795BA95C9F7620F731F841F25
:10527000951FA01D08952F923F924F925F926F92BB
:105280007F928F929F92AF92BF92CF92DF92EF92D6
:10529000FF920F931F93CF93DF93CDB7DEB7CA1B57
:1052A000DB0B0FB6F894DEBF0FBECDBF09942A8882
:1052B000398848885F846E847D848C849B84AA842A
:1052C000B984C884DF80EE80FD800C811B81AA81B7
:1052D000B981CE0FD11D0FB6F894DEBF0FBECDBF82
:1052E000ED01089511E0C6ECD1E004C0FE010E947A
:0E52F000EB242296C83CD107C9F7F894FFCFF3
:1052FE000000520720004E4557204D454153555250
:10530E00454D454E54204953205354415254494E15
:10531E0047204E4F57000000000000000000000024
:10532E00000000000000000000000000000000006F
:10533E00000000000000000000000000000000005F
:10534E00000000000000000000000000000000004F
:10535E00000000000000000000000000000000003F
:10536E00000000000000000000000000000000002F
:10537E00000000000000000000000000000000001F
:10538E00000000000000000000000000000000000F
:10539E0000000000000000000000000000000000FF
:1053AE0000000000000000000000000000000000EF
:1053BE000000000000000000000000000000676711
:1053CE0063707430302E747874000006000500FF90
:1053DE00FFFFFF52656164696E67204747626F6128
:1053EE0072642C20475053202C20556C74726173BC
:1053FE006F6E2073656E736F7220616E64204461F0
:10540E0074612053447361766500496E69746961F5
:10541E006C697A696E6720534420636172642E2E24
:10542E002E00696E697469616C697A6174696F6E58
:10543E002053442063617264206661696C65642147
:10544E0000696E697469616C697A6174696F6E2046
:10545E005344206361726420646F6E652E004F703A
:10546E00656E696E672066696C65203A0054595006
:10547E00454652414D452C444154452C54494D45C9
:10548E002C4C415449545544452C4C4F4E4749548D
:10549E005544452C414C5449542C53504545442CAD
:1054AE004845494748542C43504D2000242C47472B
:1054BE004350542C002530366C642C2530386C64E7
:1054CE002C0025642E2530356C644E2C0025642E60
:1054DE002530356C64452C0025642C0025642C2366
:1054EE000000000000110517235E04110434044F60
:1054FE00044750524D43004750474741004E004E1F
:10550E004E4500454E450045534500535345005307
:10551E00005353570057535700574E57004E4E5790
:10552E00002F0000000000540E720E580FA80EB28D
:10553E000E6A0E00000000931B1723000000008C63
:0C554E00211723272156213A217A210041
:00000001FF
